:1000000000000120910100007F0300008103000037
:100010008303000085030000870300000000000048
:10002000000000000000000000000000DDEA000009
:100030008B030000000000009DEB0000D9EB0000E6
:1000400091030000930300004DDE000069DE000014
:10005000990300009B0300009D0300009F03000024
:10006000A1030000A3030000E1D60000FDD60000BC
:1000700085E80000AB030000AD030000AF03000003
:10008000B1030000B3030000B5030000E1D7000096
:10009000B9030000BB030000BD030000BF03000064
:1000A000C1030000C3030000C5030000C703000034
:1000B000C9030000CB030000CD030000CF03000004
:1000C000D1030000D30300004D040100D70300005A
:1000D000D9030000DB030000DD030000DF030000A4
:1000E000E1030000E3030000E5030000E703000074
:1000F000E9030000EB030000ED030000EF03000044
:10010000F1030000F3030000F5030000F703000013
:10011000F9030000FB030000FD030000FF030000E3
:1001200001040000030400000504000007040000AF
:10013000090400000B0400000D0400000F0400007F
:10014000110400001304000015040000170400004F
:10015000190400001B0400001D0400001F0400001F
:1001600021040000230400002504000027040000EF
:10017000290400002B0400002D0400002F040000BF
:100180003104000033040000000000000000000003
:100190004FF0000BDFF8BE020068DFF8B612096806
:1001A00001F0030100F01C00142801D14BF0020BF8
:1001B000002901D04BF0010BBBF1000F05D0A7487F
:1001C000A749DFF8722200F09FF8A64880470BF09D
:1001D000020ABAF1000F0CD0DFF86E02DFF86E12DF
:1001E00002680B680FB44FF000024FF0FF0302608B
:1001F0000B609D484FF000024FF00103022808D128
:10020000DFF83A120A60DFF83E120A60DFF83212B5
:100210000B60012808D1DFF82A120A60DFF82612E5
:100220000A60DFF81A120B609048002809D1904844
:100230009049914A00F030F890489149914A00F075
:100240002BF891489149924A00F026F8914892493A
:10025000DFF8E22100F058F8BBF1000F10D08F4812
:100260008F49DFF8D62100F04FF80BF0020ABAF1FF
:10027000000F05D00FBC02600B6000BFAFF3008021
:10028000DFF820020FF2030E00474FF000004FF09E
:100290000001DFF814F2FEE72DE9F841884225D08D
:1002A000B2EB010200D5FEE740EA010313F00303BD
:1002B00002D000F01DF819E04FF000039046121133
:1002C000F7D09A421CBFF0C8F0C103F10103F8D186
:1002D00008F00F08B8F1000F08D004780C7000F196
:1002E000010001F10101B8F10108F6D1BDE8F88182
:1002F00008B54FF0000303780B7000F1010001F125
:100300000101013AF7D108BD884237D000F0030659
:10031000002E14D04FF00405A5EB06044FF008079B
:1003200007FB06F8914669FA08F9002C07D080F817
:10033000009069FA07F900F10100013CF5E74FF080
:1003400000060F46091A88460911914614461546BB
:10035000B14206D018BFA0E8340206F10106B1424E
:10036000F8D108F00F08B8F1000F07D002704FEA7B
:10037000322200F10100B8F10108F4E77047FEE70E
:10038000FEE7FEE7FEE7FEE7FEE7FEE7FEE7FEE745
:10039000FEE7FEE7FEE7FEE7FEE7FEE7FEE7FEE735
:1003A000FEE7FEE7FEE7FEE7FEE7FEE7FEE7FEE725
:1003B000FEE7FEE7FEE7FEE7FEE7FEE7FEE7FEE715
:1003C000FEE7FEE7FEE7FEE7FEE7FEE7FEE7FEE705
:1003D000FEE7FEE7FEE7FEE7FEE7FEE7FEE7FEE7F5
:1003E000FEE7FEE7FEE7FEE7FEE7FEE7FEE7FEE7E5
:1003F000FEE7FEE7FEE7FEE7FEE7FEE7FEE7FEE7D5
:10040000FEE7FEE7FEE7FEE7FEE7FEE7FEE7FEE7C4
:10041000FEE7FEE7FEE7FEE7FEE7FEE7FEE7FEE7B4
:10042000FEE7FEE7FEE7FEE7FEE7FEE7FEE7FEE7A4
:10043000FEE7FEE7704700000000A2A2A2A2008033
:100440000340088003401080034030800340348024
:1004500003403880034018080240000000F00020EC
:100460000000012085FE00000000000000000000E8
:10047000000000000000000090010000B004000037
:10048000B0040000203A0100203A010000000020E2
:10049000B0010020B001002030BD002030BD0020A0
:1004A00000F00020590A01008D000100000000004A
:1004B00010B5054C237833B9044B13B10448AFF39E
:1004C00000800123237010BDB00100200000000057
:1004D000F839010008B5034B1BB103490348AFF3DA
:1004E000008008BD00000000B4010020F8390100C0
:1004F00010B50446042106200EF046FC20600020C2
:1005000010BD10B5044600680EF0D2FD20680EF054
:10051000DEFD10BD0068003818BF012070470023C1
:100520000360704770B582B00446019100264FF019
:10053000FF3533462A4601A920680EF05AFC0128EF
:10054000F7D102B070BD000010B584B001910F4B1F
:100550005B68C3F3080363B10023039303AA01A9F3
:1005600000680EF0C4FC0446039B4BB10EF0F6FA93
:1005700006E000231A4601A900680EF03AFC044682
:10058000601E18BF4FF0FF3004B010BD00ED00E05A
:100590002DE9F04182B005460C4616460EF020FFCC
:1005A000804694B19EB900274FF0FF363B46324655
:1005B000214628680EF0DCFC0128F7D10EF010FF70
:1005C000A0EB080002B0BDE8F08101ACEAE700232F
:1005D0003246214628680EF0CBFC012804D00023C7
:1005E00023604FF0FF30EDE70EF0FAFEA0EB0800BD
:1005F000E8E700B583B059B100231A4600680EF051
:10060000B7FC013818BF4FF0FF3003B05DF804FBB2
:1006100001A9F1E770B504460D46002101200EF056
:10062000B3FB80B1064600231A4619460EF0E1FBE3
:1006300015B12660002070BD002301221946304606
:100640000EF096FCF5E74FF0FF30F4E7F8B50446FE
:100650000D460EF0C5FE074675B900264FF0FF3572
:1006600033462A46314620680EF082FC0128F7D135
:100670000EF0B6FEC01BF8BD00232A4619462068BE
:100680000EF076FC012802D04FF0FF30F3E70EF0B9
:10069000A7FEC01BEFE708B500231A4619460068FD
:1006A0000EF0A7FB08BD08B500680EF010FD08BDF0
:1006B000012070477047704700B587B084460846F0
:1006C000194600230393029305AB0193089B009303
:1006D00013468AB261460EF05BFD01280CBF0598F7
:1006E000002007B05DF804FB08B50EF03FFA0120CA
:1006F00008BD08B50EF046FA08BD00000048704776
:100700002345414210B5044600EB8002094B53F8E3
:10071000220038B104F042F904EB84039B00054A3F
:100720000021D15004EB8404024800EB8404002330
:10073000A37410BDCC010020F8B59E464B6890F81C
:100740002640062C1FD0184E6E25184F4FF0604CD7
:1007500002E016F8015FADB1D7F8FC4014F0807FDD
:10076000F7D0DCF8804E14F0010FF2D0DCF8004E28
:1007700014F0010FEDD0DCF80040002CFBD08CF819
:100780000050E6E700BEDEF800401C60BEF8044002
:100790009C801468C3F8064092885A8108229A8186
:1007A00083699847F8BD00BFC813010000ED00E061
:1007B0002DE9F04F83B00446824A002398460A256B
:1007C0001E469B46AE462F46A946019108E0BCF165
:1007D000000F0ED14FFA83FE013314320A2B28D0BA
:1007E000104692F812C0BEF10A0FF0D0BCF1000F13
:1007F000F2D024B12168D0F804A0514508D0BCF152
:10080000010F07D0C07CB04224BF5FB20646E3E7C9
:1008100058B2CAE0016829B1C07C4045DCD35DB262
:100820008046D9E7C07C5845D6D34FFA83F9834632
:10083000D2E7019911F0020F40F0BA80BEF10A0F21
:100840000CD0BEF1090F0DDC5FFA8EF7092F76D9B7
:100850005D4869225D4D4FF060415BE011F0010F92
:1008600000F0A980092F2CDCFFB207EB8702554B63
:1008700053F82230EBB156486122544D4FF060419D
:1008800002E010F8012F9AB1D5F8FC3013F0807F08
:10089000F7D0D1F8803E13F0010FF2D0D1F8003E2E
:1008A00013F0010FEDD00B68002BFCD00A70E8E7C5
:1008B00000BE092F27D944486922444D4FF06041BA
:1008C0000CE0B9F1090F02DC5FFA89F7F1E7092DB5
:1008D00074DCEFB2EDE710F8012F9AB1D5F8FC30D7
:1008E00013F0807FF7D0D1F8803E13F0010FF2D0E3
:1008F000D1F8003E13F0010FEDD00B68002BFCD0B7
:100900000A70E8E700BE3846FFF7FCFE9EE710F8E5
:10091000012F9AB1D5F8FC3013F0807FF7D0D1F8D1
:10092000803E13F0010FF2D0D1F8003E13F0010F1A
:10093000EDD00B68002BFCD00A70E8E700BE3D4606
:1009400007EB87031F4A02EB83039B7CEBB1214833
:1009500061221E4E4FF0604102E010F8012F9AB163
:10096000D6F8FC3013F0807FF7D0D1F8803E13F03A
:10097000010FF2D0D1F8003E13F0010FEDD00B685B
:10098000002BFCD00A70E8E700BE34B1216805EB0B
:1009900085030C4A02EB8303596005EB8505094B7F
:1009A00003EB85050023EB7478B203B0BDE8F08F4C
:1009B0004FF0FF30F9E74FF0FF30F6E74FF0FF3030
:1009C000F3E700BFCC0100202414010000ED00E09B
:1009D0000C1401003814010070B50E4C00250226DD
:1009E00007E0012B01D9FFF78DFE013514340A2DE4
:1009F0000FD02846A27C002AF7D0E37C0133DBB27B
:100A0000E374EF2BEFD8012AEBD0032A08BFA674BA
:100A1000EBE770BDCC01002070B50646084D002400
:100A200003E0013414350A2C09D02046AB7C002B9E
:100A3000F7D0AB68B342F4D1FFF764FEF1E770BDC5
:100A4000CC0100202DE9F04105460F4600F12708B2
:100A500088B100222A21032004F060F8064600280D
:100A600000F09D804389292B3CD84E4863224E4C90
:100A70004FF0604121E04D486E224B4C4FF06041F9
:100A800003E00A7010F8012F92B1D4F8FC3013F093
:100A9000807FF7D0D1F8803E13F0010FF2D0D1F86B
:100AA000003E13F0010FEDD00B68002BFCD0E8E7FF
:100AB00000BECEE710F8012F9AB1D4F8FC3013F045
:100AC000807FF7D0D1F8803E13F0010FF2D0D1F83B
:100AD000003E13F0010FEDD00B68002BFCD00A7024
:100AE000E8E700BE7468012002F092F9A08295F850
:100AF0002630062B1FD02E496E222B484FF0604C1B
:100B000002E011F8012FAAB1D0F8FC3013F0807F79
:100B1000F7D0DCF8803E13F0010FF2D0DCF8003E95
:100B200013F0010FEDD0DCF80030002BFBD08CF877
:100B30000020E6E700BED5F82730C4F81630B8F834
:100B4000043063831B4B186820629B88A3841A4B74
:100B5000186820609B88A380D5F82730C4F8063039
:100B6000B8F8043063816B68E3613B68C4F82630F1
:100B70004FF48073E381082323820623A3740423A4
:100B8000E3744FF4C163A381AB69314628469847AB
:100B90000446304603F002FF2046BDE8F0814FF0E6
:100BA000FF34F9E77414010000ED00E06414010063
:100BB000C813010064150100A8140100F8B5064629
:100BC0000F46144602EB82022A4B03EB82039B7C06
:100BD000012B14D904EB8403264A02EB83039B7C8C
:100BE000022B2DD004EB8404224B03EB84030C3343
:100BF00006F1270239463046FFF79EFDF8BD1E4D2F
:100C000061221E494FF0604C02E015F8012FAAB195
:100C1000D1F8FC3013F0807FF7D0DCF8803E13F081
:100C2000010FF2D0DCF8003E13F0010FEDD0DCF83C
:100C30000030002BFBD08CF80020E6E700BEC9E7AF
:100C400004EB840302EB8303DB7CE32BCAD904EBC4
:100C5000840102EB810104313046FFF7F3FE0028E6
:100C6000C0D104EB8403034A02EB830303229A748A
:100C7000B8E700BFCC010020B014010000ED00E097
:100C80002DE9F04180460F4615460146386801F0CF
:100C90002DFB00286FD13B6803F0F002E02A6DD0F5
:100CA000002B6ED001213846FFF782FD041E37DB92
:100CB000264604EB84035B4A02EB83039B7C002BF8
:100CC00040F0818004EB840302EB830301229A74D9
:100CD00039464046FFF7B6FE002D55D006EB860399
:100CE000504A02EB83039B7C012B0AD8012B4DD188
:100CF000002D7ED02B464FF06E0C4B4F4FF06044D2
:100D00002FE04A4B1C7004EB8404464B03EB840336
:100D10000C3308F1270229464046FFF70DFD044633
:100D20002046BDE8F08110F8011F99B1D7F8FC20EA
:100D300012F0807FF7D0D4F8802E12F0010FF2D09D
:100D4000D4F8002E12F0010FEDD02268002AFCD05A
:100D50002170E8E700BE1A7B012A19D11B68002B1D
:100D60004DD059891A899142F5D11A68002AF2D0DA
:100D70002F486146DAE76FF00D04D1E76FF00D04FC
:100D8000CEE76FF00D04CBE70446C9E70446C7E79A
:100D900000221989032003F0C1FE044650B1294600
:100DA000204604F0ABF970B3204603F0F7FD4FF096
:100DB000FF34B5E74FF0FF34B2E739464046FFF75E
:100DC00041FE0446ACE704EB8403164A02EB8303BE
:100DD0009B7C012B3FF47CAF002DEED006EB86060A
:100DE000104B03EB8606B37C012B8AD84FF0FF34FF
:100DF00096E7284604F0E5F84FF0FF3490E72846E0
:100E000004F0DFF82C4606EB8603064A52F823006E
:100E100008B103F0C3FD06EB8606024B43F82640FB
:100E200000247DE7CC01002000ED00E094020020CA
:100E3000E0140100F0B583B00D46144606460028C4
:100E40003ED0002D5BD0002C78D00E21284603F038
:100E500005FD002840F0D3803146206801F046FAB5
:100E6000002840F0C380236803F0F002E02A00F07D
:100E7000848072685A40B1680A420AD09BB24FF629
:100E8000A962934205D006F10C04F368002B00F030
:100E9000B9805E4B1A7802EB82015D4B03EB810354
:100EA0009B7C012B08D902EB8203594901EB830398
:100EB00021685B68994276D0554B4FF0000C7DE07D
:100EC00054486E22544F4FF0604102E010F8012F59
:100ED0009AB1D7F8FC3013F0807FF7D0D1F8803E7C
:100EE00013F0010FF2D0D1F8003E13F0010FEDD056
:100EF0000B68002BFCD00A70E8E700BEA1E747486A
:100F00007122454F4FF0604102E010F8012F9AB175
:100F1000D7F8FC3013F0807FF7D0D1F8803E13F083
:100F2000010FF2D0D1F8003E13F0010FEDD00B68A5
:100F3000002BFCD00A70E8E700BE84E7384869223D
:100F4000354F4FF0604102E010F8012F9AB1D7F809
:100F5000FC3013F0807FF7D0D1F8803E13F0010F02
:100F6000F2D0D1F8003E13F0010FEDD00B68002B4A
:100F7000FCD00A70E8E700BE67E701238DF8003077
:100F800000238DF801305E238DF80230637803F082
:100F90007F038DF80330A3788DF80430E3788DF863
:100FA00005306B4623E029463046FFF707FE24E074
:100FB0000CF1010C1433BCF10A0F11D093F812E0BC
:100FC000BEF1010FF4D921685A689142F0D15FFA5D
:100FD0008CF20E4B1A7029463046FFF7EFFD0CE0FD
:100FE0002A4621463046FFF74BFE06E00D4B06F140
:100FF000270229463046FFF79FFB03B0F0BD6FF094
:101000000100FAE76FF00300F7E700BF9402002049
:10101000CC0100206414010000ED00E0FC1401008C
:10102000081501006C1501002DE9F04782B0044657
:1010300046890E2E19D90F464568B5F80C802B78D5
:1010400013F0010F0BD0012B16D006229949284628
:101050000FF026FD18B9637B43F008036373B8F102
:10106000080F14D0B8F5C16F40D0204603F096FCAD
:10107000002002B0BDE8F0876B78002BEFD1AB7891
:101080005E2BECD1437B43F010034373E7E797F803
:101090002D3013F0200FE8D06FF00D01204603F043
:1010A000DDFBF0B184484322844D4FF0604102E003
:1010B00010F8012F9AB1D5F8FC3013F0807FF7D0EB
:1010C000D1F8803E13F0010FF2D0D1F8003E13F0BA
:1010D000010FEDD00B68002BFCD00A70E8E700BED2
:1010E000C3E73946204600F0BBFEC1E797F82D3034
:1010F00013F0200FB9D0292E0FD9EB89B3F5807FDB
:1011000007D16A8A40F206439A4202D12B8A082B01
:1011100007D0204603F042FCAAE7204603F03EFC3D
:10112000A6E7EB690193D5F826207B6883B905F122
:1011300016064FF000094FF0020897F82630062BEC
:101140002AD05F486E22DFF874C14FF060410EE094
:1011500005F116069A4219BF4FF000094FF0020838
:101160004FF00109C846E8E710F8012F9AB1DCF802
:10117000FC3013F0807FF7D0D1F8803E13F0010FE0
:10118000F2D0D1F8003E13F0010FEDD00B68002B28
:10119000FCD00A70E8E700BE07F1270A0198C0B347
:1011A000394601F0A3F8A0BB019B03F0F003E02B4C
:1011B0002FD0414601A8FFF7FBFA031E29DB414966
:1011C00003EB830E01EB8E0C02228CF81220CCF87C
:1011D0000870724692000C3201EB020830688850A9
:1011E000B288A8F8042000228CF8132051F82E8031
:1011F000B8F1000F0DD073469B000A460021D15074
:101200003346524641463846FFF796FA404603F0C9
:10121000C5FBAB8AB3F5807F03D0204603F0BEFB4D
:1012200026E7B9F1000FF8D0022001F0F1FDA88205
:10123000EB69C5F826307B68EB6197F82630062B02
:101240001ED021496E23DFF874C04FF0604002E0E9
:1012500011F8013F9BB1DCF8FC2012F0807FF7D041
:10126000D0F8802E12F0010FF2D0D0F8002E12F03C
:10127000010FEDD00268002AFCD00370E8E700BE41
:1012800033682B62B388AB8433682B60B388AB8040
:10129000D7F827303360BAF80430B380D7F8273056
:1012A000C5F80630BAF804306B81BB692146384670
:1012B0009847B2E76C1501001815010000ED00E039
:1012C0003C150100CC010020C8130100002303607D
:1012D0007047000070B50C46144B1B68012B07D1FA
:1012E00013484FF48051114A01601368012BFBD061
:1012F0000E4B01221A6000250E4E00E02468628920
:10130000616870190FF0DCFB63891D44ADB222895E
:101310009A42F3D1054E074C3246294620460DF03D
:101320004FFA0128F8D1002070BD00BFA80E0020A0
:1013300000E100E0B8080020464B1B68002B40F09D
:1013400088802DE9F041434B01221A60424B1E6810
:10135000002E4CD00278414B1B789A4218D042782C
:101360003E4B5B789A4213D082783C4B9B789A42F2
:101370000ED0C278394BDB789A4209D00279374BCC
:101380001B799A4204D04279344B5B799A4230D12E
:1013900089B261B30322104603F0C0FB80460028E7
:1013A00047D0044600252E4F6289791960680FF0F6
:1013B00087FB63891D44ADB22468002CF4D1002161
:1013C00027480DF099F9234B00221A60D8F8043011
:1013D000988901F01DFDB0F5006F03D040F60603BB
:1013E000984232D1336931464046984748BBBDE800
:1013F000F0811C4B1B781C4AD4180568D550828894
:10140000A2800633DBB23C2B0FD0164A1370027851
:10141000124B1A7042785A7082789A70C278DA70D9
:1014200002791A7142795A71B2E70E4B00221A7092
:10143000EDE700210A480DF05FF9064B00221A6023
:10144000D5E7404603F0AAFAD1E7404603F0A6FAF2
:10145000CDE77047B4080020AC0E0020B40E002089
:10146000C4020020F80E0020BC0E002070B5044617
:1014700000262F4B1E70C661452380F82E30302386
:1014800080F82F302B4B43612B4B83612B4BDE6657
:10149000012380F830300EF061FF0546037884F8B0
:1014A0002730437884F82830837884F82930C3784B
:1014B00084F82A30037984F82B30437984F82C306F
:1014C000062384F8263040F2DC53A38494F82D30B0
:1014D00063F04D0384F82D30194B1C60194B1E60CE
:1014E000194B1E60194B502283F80C23184C2046D0
:1014F0000CF086FDA672022323602B7823716B7893
:101500006371AB78A371EB78E3712B7923726B79FC
:10151000637220460CF008FE0E480DF039FA0E48B2
:101520000DF03CFA31460D480DF0E6F8304670BD3E
:10153000B00E0020350E0000D512000000800340E0
:10154000AC0E0020A80E0020B408002000E100E04E
:1015500098020020CD12000039130000C4020020C0
:10156000054B1B7833B1054B4FF480521A60024B88
:1015700000221A70704700BFB00E002000E100E0AA
:1015800038B50C46034B1D782A4603490FF098FAEC
:10159000257038BDF80E0020BC0E00202DE9F04368
:1015A00085B007468946904600222421012003F099
:1015B000B5FA002857D006464389232B1FD82B4D58
:1015C00063242B4A4FF0604C02E015F8014FACB198
:1015D000D2F8FC3013F0807FF7D0DCF8803E13F0B7
:1015E000010FF2D0DCF8003E13F0010FEDD0DCF873
:1015F0000030002BFBD08CF80040E6E700BE7D6891
:10160000746884F8009084F801804FF00008A4F812
:101610000480A4F8068073687A6817685068916837
:10162000D2F80CC09F60D8601961C3F814C0176964
:10163000506991699F61D8611962A4F8028071892B
:10164000204600F0BCFB6080EB680393012301930C
:10165000CDF80080FF2303AA4146304600F000FE8B
:10166000304603F09BF905B0BDE8F0837415010026
:1016700000ED00E02DE9F04385B004460F46D0F8B8
:10168000048098F8005005F00F05AD006E4236B2A8
:10169000314603F0E3F8A8B92389032B12D9636814
:1016A0001B78082B40F03381A04B186800F0F0093C
:1016B000394600F01BFE58B9B9F1E00F08D0238974
:1016C000072B09D8204603F069F905B0BDE8F0837F
:1016D000204603F063F9F8E7204600F076FB90B966
:1016E0002DB22221204603F0B9F8002800F0A68090
:1016F0002946204603F0B2F828B38D4969228D4D62
:101700004FF0604006E0204603F048F9DDE711F8AD
:10171000012F9AB1D5F8FC3013F0807FF7D0D0F8C4
:10172000803E13F0010FF2D0D0F8003E13F0010F0D
:10173000EDD00368002BFCD00270E8E700BE204625
:1017400003F02CF9C1E700222189022003F0E6F919
:1017500081460028F3D0428905F108039A421ED23F
:1017600075496322DFF8CCC14FF0604002E011F808
:10177000012F9AB1DCF8FC3013F0807FF7D0D0F85D
:10178000803E13F0010FF2D0D0F8003E13F0010FAD
:10179000EDD00368002BFCD00270E8E700BE2146C4
:1017A000484603F0ABFCF0B164496922614D4FF04B
:1017B000604002E011F8012F9AB1D5F8FC3013F027
:1017C000807FF7D0D0F8803E13F0010FF2D0D0F830
:1017D000003E13F0010FEDD00368002BFCD0027027
:1017E000E8E700BEABE7D9F804803146484603F08D
:1017F00035F8F0B1524969224E4D4FF0604002E099
:1018000011F8012F9AB1D5F8FC3013F0807FF7D092
:10181000D0F8803E13F0010FF2D0D0F8003E13F064
:10182000010FEDD00368002BFCD00270E8E700BE8A
:1018300085E7204603F0B2F84C4605E06FF0210141
:10184000204603F00BF858BB6268384B1B68C8F899
:101850000C303C4B1B68C8F81030002313705388C1
:101860004FF6F6718B428CBF093308339BB253801D
:10187000FF2388F808300023A8F80A3014214046D6
:1018800000F09DFAA8F80A002946204602F0E6FF7B
:10189000002840D02C484322264D4FF0604121E0E3
:1018A00027486922234D4FF0604102E010F8012FD4
:1018B0009AB1D5F8FC3013F0807FF7D0D1F8803E94
:1018C00013F0010FF2D0D1F8003E13F0010FEDD06C
:1018D0000B68002BFCD00A70E8E700BE2FE710F879
:1018E000012F9AB1D5F8FC3013F0807FF7D0D1F8F2
:1018F000803E13F0010FF2D0D1F8003E13F0010F3B
:10190000EDD00B68002BFCD00A70E8E700BE204643
:1019100003F044F8D9E602970123019300220092D4
:10192000FF230249204600F089FCF0E70C0F00205D
:10193000A015010000ED00E0D41501000C16010017
:1019400034160100100F00201815010008B50A46D2
:101950000321FFF723FE08BD08B50A460B21FFF758
:101960001DFE08BD38B505460C46437B022B07D04B
:10197000012B00D038BDC38913B18AB29342F9D983
:10198000FEF7BCFE2146012C38BF0121013990FB36
:10199000F1F404FB11000130E88101236B73E9E7E6
:1019A0002DE9F04389B005460E46364B1B68079378
:1019B00000220821104603F0B1F878B30746D0F8AA
:1019C00004804389072B1FD82F4C69222F494FF0E1
:1019D000604C02E014F8012FAAB1D1F8FC3013F0EA
:1019E000807FF7D0DCF8803E13F0010FF2D0DCF8F6
:1019F000003E13F0010FEDD0DCF80030002BFBD0DF
:101A00008CF80020E6E700BE6B685B680793162E33
:101A100007D0172E2FD0384602F0C0FF09B0BDE81E
:101A2000F08305F10809AB68C8F8043001232B7373
:101A300088F80060002488F80140A8F802400821D6
:101A4000404600F0BCF9A8F802006B6840F29442EE
:101A5000ADF81820ADF81A400422049206AA0392A9
:101A6000029302230193009401234A4607A93846B2
:101A700000F0F4FACFE7AB68C8F80430DFF8109054
:101A8000D6E700BFEC1601006816010000ED00E08B
:101A9000FC0E0020034B044A1A60044B02F18072D2
:101AA0001A607047000F0020E0000001FC0E0020CB
:101AB00070B5084B1C6864B10546052601E0246832
:101AC0003CB16368AB42FAD131462046FFF74AFF8A
:101AD000F5E770BD040F00200246074B186810B9E7
:101AE00009E0006838B143689342FAD10B68D0F836
:101AF00008C09C45F5D17047040F002038B5054655
:101B00000C46FFF7E9FF034608B1184638BD0B2025
:101B100002F070FC03460028F7D045605CB12268F3
:101B20009A600022DA815A731A731A74034A116890
:101B300019601360E9E70022F2E700BF040F0020FC
:101B400010B504460A49FFF7D9FF60B1022242737B
:101B5000027C01320274636B43B1012204492046C6
:101B60009847002010BD4FF0FF30FBE70020F9E759
:101B7000000F00202DE9F04182B004460D461646C4
:101B800043681B7803F00F039B00594202F066FE86
:101B900010B96189072905D8204602F0FFFE02B07E
:101BA000BDE8F0816768384600F009F970B9314640
:101BB0002846FFF791FF024660B13B78112B0DD00C
:101BC000162B35D0204602F0E9FEE8E7204602F069
:101BD000E5FEE4E7204602F0E1FEE0E731681E4B57
:101BE0001B68994207D07B68002BEBD079781046B0
:101BF000FFF7B8FEE6E77B681BBB7B780BB90A23CF
:101C00007B70164B1E68002EDCD0DFF84C8002E0A3
:101C10003668002ED6D07368AB42F9D1B268D8F8D6
:101C200000309A42F4D079783046FFF79BFEEFE718
:101C3000437B012BC6D10023C3810221417303736F
:101C4000C0E77B68019301A92846FFF745FF0246DC
:101C50000028B7D0CAE700BF000F0020040F002003
:101C600038B50C4B1C689CB1162501E024687CB18A
:101C7000E389002BFAD0013B9BB2E381002BF5D125
:101C8000637B012BF2D129462046FFF789FEEDE761
:101C900038BD00BF040F002030B583B00023ADF87D
:101CA000063010F0010506D099423DDD10F8013BE9
:101CB0008DF807300139012934DD034600228E46B4
:101CC000441833F802CB6244A4EB030CBCF1010FBF
:101CD000F7DCAEF102035B085C1C64000129D8BF8D
:101CE00002242044A1F10201C3EBC3734FEA430372
:101CF000D8BF00231944002902DD03788DF806308F
:101D0000BDF80600024490B200EB124290B200EB24
:101D1000124025B103029BB2C0F30720184380B2E2
:101D200003B030BD0022E6E70022E9E72DE9F843E1
:101D3000894690461F4600283FD005460026344677
:101D400001E02D68A5B169896868FFF7A5FF044423
:101D5000A3B203EB14446B8913F0010FF1D0C6F169
:101D60000106F6B223029BB2C4F307241C43E8E742
:101D700026B123029BB2C4F307241C43D9F80020E8
:101D8000D8F800108BB203EB114391B20B4403EB74
:101D900012431C44384601F03BF80444BDF82000CF
:101DA00001F036F80444A0B200EB1444A0B200EBFA
:101DB0001440C04380B2BDE8F8830024DEE708B5D4
:101DC000FFF76AFFC04380B208BD70B518B305467F
:101DD0000026344601E02D68A5B169896868FFF7DF
:101DE0005BFF0444A0B200EB14446B8913F0010FB5
:101DF000F1D0C6F10106F6B223029BB2C4F3072468
:101E00001C43E8E726B123029BB2C4F307241C431A
:101E1000E04380B270BD0024FAE7000001460E4B9B
:101E2000186860B90D4B186828B190F82D3013F080
:101E3000010F08BF0020704700680028F2D090F81A
:101E40002D3013F0010FF7D00B68426853408268C1
:101E50001342F1D1EFE700BFE83E0020E43E00204E
:101E60002DE9F84F0546D0F8049099F800703B0929
:101E7000042B04D002F092FD0020BDE8F88F0E463E
:101E800007F00F07BF00B9F8020000F0C6FF0446D4
:101E90006B89BB4202D32B89834203D2284602F0CE
:101EA0007DFDE9E739464846FFF789FFB8B9214685
:101EB000284602F09BFFD9F81030634A1360D9F826
:101EC0000C10624A116003F0F003E02B0BD0344693
:101ED0004FF00108DFF870B1DFF874A133E0284655
:101EE00002F05CFDC8E796F92D30002B17DB99F85E
:101EF0000930112B67D0554B186860B1002431466A
:101F000000F0F4F9002865D1504B1B6803F0F00392
:101F1000E02B5FD064BB284602F040FDACE74A49A5
:101F20003046FFF7D9FD0028E1D034461CE0B8F177
:101F3000000F46D0DAF80040B44208BF24684FF0E2
:101F40000008002CD3D094F82D3013F0010FEED000
:101F50006368002BEBD0DBF80000834204D02146FD
:101F600000F0C4F90028E2D0384B18680028C6D128
:101F7000B9F8063023F0C0039BB243B1284600F005
:101F800073FC054600283FF477AFD0F80490314B3E
:101F90001E60314BC3F800903146284603F070FABA
:101FA00000BB99F80930013B102B35D8DFE803F06E
:101FB000292E343434243434343434343434343402
:101FC00016002468B8E74F447B88B3F5884F92D158
:101FD00034469FE7284602F0E1FC4DE731462846AB
:101FE00007F01AFC00231B4A13601B4A1360174AB0
:101FF0001360154A13603FE73146284605F096FC0A
:10200000F0E731462846FFF735FBEBE70E4A31464D
:102010002846FFF7AFFDE5E731460B4B186800F0A7
:1020200065F928B9084B1B6803F0F003E02B03D1D6
:10203000284602F0B3FCD5E7C5F8049002212846F3
:10204000FFF784FCF4E700BF0C0F0020100F002006
:10205000E83E0020140F0020080F00202DE9F04F6B
:1020600085B004460091174698469DF838A09DF823
:102070003CB0DDF84090BDF84860C389012B1DD00D
:102080006A4870226A4D4FF0604102E010F8012F5B
:102090009AB1D5F8FC3013F0807FF7D0D1F8803EAC
:1020A00013F0010FF2D0D1F8003E13F0010FEDD084
:1020B0000B68002BFCD00A70E8E700BE002F00F090
:1020C000A48056B3F51C25F00305ADB205F1140349
:1020D0009BB2019329B2204602F0C0FB002840F0D9
:1020E0009F803246119960680EF0EAFCAE420CD334
:1020F000680835B36268023A00231E4632F8021FB0
:102100000E4401338342F9DB0AE06068AA1B002118
:1021100030440EF0E3FC6808ECE71423019300263A
:102120001421204602F09AFB00287CD1656863895F
:10213000132B20D83F486322DFF8F4C04FF06041F2
:1021400004E00026ECE710F8012F9AB1DCF8FC302F
:1021500013F0807FF7D0D1F8803E13F0010FF2D05A
:10216000D1F8003E13F0010FEDD00B68002BFCD02E
:102170000A70E8E700BE85F8088085F809B03B687A
:102180002B619AB202EB134248EA0B289044464472
:10219000019BC3F3870343F040032B7085F801A034
:1021A00043EA0A231E44208900F032FE688000EBD7
:1021B000060A0023EB80204E308800F029FEA8801C
:1021C0005044338801333380009B0BB11A680AB93D
:1021D000D9F80420EA6093B2034403EB124293B2AD
:1021E00003EB124303EB1343DB436B81B9F8243059
:1021F00013B122899A420DD8D9F814303A462146B3
:102200004846984705B0BDE8F08F63681B690393A3
:1022100003AFEBE73A464946204600F0FDFCF1E704
:102220006FF00100EEE76FF00100EBE7A41601008C
:1022300000ED00E0B0160100180F002010B586B0C8
:102240000024049403940A9C02949DF82440019471
:102250009DF820400094FFF701FF06B010BD00007C
:102260002DE9F04784B00746894690469A46C389CF
:10227000012B1FD01B4E70251B4A4FF0604C02E013
:1022800016F8015FADB1D2F8FC3013F0807FF7D0C3
:10229000DCF8803E13F0010FF2D0DCF8003E13F0C2
:1022A000010FEDD0DCF80040002CFBD08CF8005082
:1022B000E6E700BE4046FFF7B1FD78B102909DF819
:1022C000343001939DF830300093534642464946DE
:1022D0003846FFF7B3FF04B0BDE8F0876FF00300A6
:1022E000F9E700BFA416010000ED00E00346421E1E
:1022F00012F1030F13D891F82D0010F0020013D043
:102300004A689A420DD089685A400A420BD1C843A4
:1023100023EA0103834214BF0020012070470120FB
:102320007047002070470020704700002DE9F04FF3
:1023300085B00C4690F90030A3F13001C9B20929EB
:1023400000F2AE8002466E464FF00A084FF0100AC7
:102350004FF0080903AF46E092F9013023F0200165
:10236000582902D001324D4640E092F90230023243
:1023700055463BE001FB0531303992F9003001321E
:10238000501E5FFA83FEAEF1300C5FFA8CFCBCF19C
:10239000090FEFD9102D18D1AEF1610B5FFA8BFB4D
:1023A0002EF0200CACF1410C5FFA8CFCBCF1050F57
:1023B0000BD80A33BBF11A0F34BF612041201B1A1E
:1023C00043EA011192F90030D9E72E2B11D1BE4218
:1023D00068D046F8041B421C90F90130A3F130018B
:1023E000C9B2092962D8302BB6D045460132002146
:1023F000C6E733F0200306D0AEF10902D2B2042AB8
:1024000001D900204FE06846301A801001300428BE
:1024100028D8DFE800F0480903111B00B1F1807FE4
:1024200046D2009B41EA0361002C47D0084600F0E9
:10243000F9FC2060012036E0B1F5803F3AD2019BE3
:102440001B04009A43EA02631943EDE7FF2933D8DE
:10245000019B1B04009A43EA0263029A43EA0223A7
:102460001943E1E716487522164D4FF06043D5F841
:10247000FC6016F0807F0DD0D3F8806E16F0010F4F
:1024800008D0D3F8006E16F0010F03D01E68002E9E
:10249000FCD01A7010F8012F002AE8D100BEC3E763
:1024A000002000E0002005B0BDE8F08F0020FAE732
:1024B0000020F8E70020F6E70020F4E70120F2E72B
:1024C000E016010000ED00E000B583B001A9FFF7C0
:1024D0002DFF20B94FF0FF3003B05DF804FB0198E9
:1024E000FAE7000038B5014618B1062001F0DEFF1A
:1024F00038BD0F4C70220F4D4FF0604002E014F8D1
:10250000012F9AB1D5F8FC3013F0807FF7D0D0F8C6
:10251000803E13F0010FF2D0D0F8003E13F0010F0F
:10252000EDD00368002BFCD00270E8E700BEDCE7CA
:10253000381A010000ED00E038B5044638B1606992
:1025400008B102F02BFA2046FFF7CCFF38BD0F4848
:1025500070220F4D4FF0604102E010F8012F9AB148
:10256000D5F8FC3013F0807FF7D0D1F8803E13F01F
:10257000010FF2D0D1F8003E13F0010FEDD00B683F
:10258000002BFCD00A70E8E700BED8E7F416010083
:1025900000ED00E038B5184B1B68834207D051B1FD
:1025A00003680B600146052001F080FF38BD02681A
:1025B000114B1A60F6E7114C7322114D4FF0604C2D
:1025C00002E014F8012FAAB1D5F8FC3013F0807F97
:1025D000F7D0DCF8803E13F0010FF2D0DCF8003EBB
:1025E00013F0010FEDD0DCF80030002BFBD08CF89D
:1025F0000020E6E700BED3E71C0F00200017010013
:1026000000ED00E02DE9F0478046894681420CD07C
:10261000B9F1000F40D0D9F8003043453CD06348B1
:102620007022634C4FF0604122E062487022604C9F
:102630004FF0604102E010F8012F9AB1D4F8FC305D
:1026400013F0807FF7D0D1F8803E13F0010FF2D065
:10265000D1F8003E13F0010FEDD00B68002BFCD039
:102660000A70E8E700BED3E70A7010F8012F92B1B4
:10267000D4F8FC3013F0807FF7D0D1F8803E13F00F
:10268000010FF2D0D1F8003E13F0010FEDD00B682E
:10269000002BFCD0E8E700BED8F804506B689A889D
:1026A0002AB14FF0000A424F4FF0604450E01B68DF
:1026B000C8F804306B68D8F80820D8F80C40D8F86F
:1026C0001000D8F814101A605C609860D960D8F8CF
:1026D00018201A6101212846FFF73EF9284602F02A
:1026E00065FC1FFA80FA284602F058F9D8F8045021
:1026F000002DD8D149464046FFF74CFF2E4B1B8892
:1027000053454BD22D486922294C4FF0604130E0AF
:1027100011F8012F9AB1D7F8FC3013F0807FF7D071
:10272000D4F8803E13F0010FF2D0D4F8003E13F03D
:10273000010FEDD02368002BFCD02270E8E700BE2B
:1027400050441FFA80FA304602F028F9002DD1D00B
:102750006B682E461D68304602F028FC0AEB000329
:10276000B3F5803FECDB16497022D4E710F8012F57
:102770009AB1D4F8FC3013F0807FF7D0D1F8803EC6
:1027800013F0010FF2D0D1F8003E13F0010FEDD09D
:102790000B68002BFCD00A70E8E700BE064A1388DD
:1027A000A3EB0A0313805046BDE8F0872817010009
:1027B00000ED00E01C1701001A0F00205C1701005B
:1027C0003C1701002DE9F04105460F460026DFF8D1
:1027D000648023E00134B8B193F81FE0C27F9645CE
:1027E00098BF18461A688AB1194613465A69624555
:1027F000F0D12A69D3F818E09645EBD1B3F80CE094
:10280000AA889645E6D1EDE71846EBE710B1FFF749
:10281000F9FE0644BE420ADA012C08DDD8F8003081
:102820002BB1D5F80CC0002421462046DEE7304607
:10283000BDE8F0811C0F002038B50A4B186878B14C
:10284000002404E0013BC3770446006840B1C37F25
:10285000002BF7D105682146FFF7D4FE2846F5E79F
:1028600038BD00BF1C0F00202DE9F84F0746456812
:102870002B7803F00F03052B7ED1E88800F0CDFA0A
:102880008246688800F0C9FA834695F80090384679
:1028900002F08CFB80469D4B1B8803440A2B07DC0F
:1028A0009B4B1C68002C00F09081EA68002611E028
:1028B00001462846FFF786FF00285DD0934B1B8812
:1028C00043440A2BECDD57E023682646002B00F03A
:1028D0007C811C4663699342F6D1A1692B699942B8
:1028E000F2D1A189AB889942EED1E88800F095FA3F
:1028F000C0F30C0000284ED0844A13889844A2F8F4
:102900000080EB8813F0200F0BD1A37F43F001036D
:10291000A37709F00F09ABEB890B0BEBCA0AA4F8FC
:102920001CA07D68688800F078FA95F8008008F0AF
:102930000F08A0EB88081FFA88F8E88800F06DFA05
:10294000C0F30C02D200D7F804900023C9F800307D
:10295000A9F8042090441FFA88F8A9F80680606856
:10296000002800F02C814FF0010E5FE04146284620
:10297000FFF728FF804506DD384602F00FF80027F4
:102980003846BDE8F88F052001F034FD03460028E5
:1029900040F02281F0E7E08900F03FFAC0F30C003C
:1029A0000028A9D02B686868A968EA68A360E0607D
:1029B000216162612B69A3619EE7C9F800007DB3C4
:1029C000E988914200F2E9809B884345C0F0E580A8
:1029D0002F60A37F13F0010F00F0E980BEF1000F1C
:1029E00000F0E580636859688B88002B40F0DF8039
:1029F000D9F8003063B14A46D3F80490D288B9F8C8
:102A000004309A4240F0D380D9F80030002BF2D144
:102A1000494559D13F4973223F4D4FF060431DE076
:102A20006760D6E71868002800F0C3801D46436839
:102A300099888A42C1D38A4200F0AF80B3F806C0B9
:102A40006245C0F0AA80002DECD0E888884218BF0B
:102A50004FF0000EE6E711F8012F9AB1D5F8FC000F
:102A600010F0807FF7D0D3F8800E10F0010FF2D075
:102A7000D3F8000E10F0010FEDD018680028FCD03C
:102A80001A70E8E700BED9F80030EBB1234876228F
:102A9000214D4FF0604302E010F8012F9AB1D5F8B4
:102AA000FC1011F0807FF7D0D3F8801E11F0010FD9
:102AB000F2D0D3F8001E11F0010FEDD019680029F3
:102AC000FCD01A70E8E700BEB9F80620A38B9A4242
:102AD00029D013487623104D4FF0604102E010F8E2
:102AE000013FFBB1D5F8FC2012F0807FF7D0D1F880
:102AF000802E12F0010FF2D0D1F8002E12F0010F4B
:102B0000EDD00A68002AFCD00B70E8E71A0F00200D
:102B10001C0F00207817010000ED00E0881701006D
:102B2000AC17010000BEA38B1433A38363685F68F6
:102B30003D68A368E068216962693B607860B960BC
:102B4000FA60A3693B61A08B00F062F978800023F2
:102B5000FB807B8114213846FFF731F97881676863
:102B60007DB16FF01309D5F804804946284601F07D
:102B700075FE2946384602F031FAD8F80050002D8B
:102B8000F1D131462046FFF705FD384602F00EFA36
:102B90001F4A13881B1A1380F2E6384602F006FA21
:102BA0001B4A13881B1A1380384601F0F7FE0027D2
:102BB000E6E61F60B9F804306345F8D109E76760BD
:102BC000A37F13F0010FF2D00CE7052001F012FCF7
:102BD000034600283FF4CAAE00225A609A60DA60C9
:102BE0001A615A619A61DA610322DA77094A116837
:102BF000196013602A686E68A868E9689A60DE60E8
:102C0000186159612A699A6126461C4674E600BF1C
:102C10001A0F00201C0F00202DE9F04F8FB007463F
:102C20000B910C928C8C0694D0F804A0BAF8060094
:102C300000F0F3F8C0F30C03039300F40053079380
:102C40003B89143B9BB20293B4F1140348BF073392
:102C5000C3F3CF031A460A93029B002B00F0CD80EA
:102C6000D3009BB20D9300261424CDF820A0039B23
:102C7000C3F30C03079A1A430592069B133B029970
:102C80008B42DDBF42F4005305930D9B029B0493DE
:102C900000221421022001F041FF8146002800F0AB
:102CA000AE807B89132B24D9D9F80430DDF820C0FD
:102CB000DCF80020DCF80450DCF80800DCF80C102C
:102CC0001A605D609860D960DCF810201A61D9F84C
:102CD000043009937B6823447B607B891C1B7C81C7
:102CE000049B002B4FD01C464FF0060A4FF0020BFE
:102CF00020E0444874224FF0604102E010F8012FB8
:102D0000A2B1414BD3F8FC3013F0807FF6D0D1F85C
:102D1000803E13F0010FF1D0D1F8003E13F0010F07
:102D2000ECD00B68002BFCD00A70E7E700BEBBE7D5
:102D30003F683CB37E89A64228BF2646B6B2002E25
:102D4000F6D0504601F056FB0546002842D00196C9
:102D50007B68009303465A463146032001F032FD5A
:102D6000804600283ED0384602F02BF96F61274B91
:102D70002B614146484602F031F9A41BA4B214B1BC
:102D80003F68D7E72646059800F042F8099CE080A6
:102D9000049D05F1140080B200F03AF86080002331
:102DA000638114212046FFF70AF860810B9843697C
:102DB0000C9A49469847484601F0F0FD029B5B1B80
:102DC0009AB20292039B0A990B449BB2039392B16D
:102DD00034464CE7484601F0E1FD4FF0FF300FB0BC
:102DE000BDE8F08F2846FFF77DFB484601F0D6FD91
:102DF0004FF0FF30F3E70020F1E70020EFE74FF05E
:102E0000FF30ECE7DC17010000ED00E039250000A1
:102E1000030A43EA002080B27047030A43EA002015
:102E200080B27047030E43EA0063020202F47F029D
:102E30001343000A00F47F401843704708B5FFF7BA
:102E4000F1FF08BD037B8B4203D001730023437362
:102E50004383704730B4038B432B1FD9144C642237
:102E6000144D4FF0604C02E014F8012FAAB1D5F8D0
:102E7000FC3013F0807FF7D0DCF8803E13F0010FB8
:102E8000F2D0DCF8003E13F0010FEDD0DCF800309A
:102E9000002BFBD08CF80020E6E700BE4369028BD4
:102EA000541C0483134483F8F01030BC704700BFF7
:102EB000FC17010000ED00E070B4038B941C234468
:102EC000442B1FD9174D6424174E4FF0604C02E07D
:102ED00015F8014FACB1D6F8FC3013F0807FF7D075
:102EE000DCF8803E13F0010FF2D0DCF8003E13F066
:102EF000010FEDD0DCF80030002BFBD08CF8004047
:102F0000E6E700BE4369048B651C0583234483F810
:102F1000F0104369018B4C1C04830B4483F8F020B0
:102F200070BC70473818010000ED00E030B4038B2E
:102F30000233442B1FD9184C6422184D4FF0604CBB
:102F400002E014F8012FAAB1D5F8FC3013F0807F0D
:102F5000F7D0DCF8803E13F0010FF2D0DCF8003E31
:102F600013F0010FEDD0DCF80030002BFBD08CF813
:102F70000020E6E700BE4369028B541C048313441F
:102F80000A0A83F8F0204369028B541C048313441B
:102F900083F8F01030BC70478018010000ED00E0AD
:102FA00030B4038B0433442B1FD9204C6422204DB2
:102FB0004FF0604C02E014F8012FAAB1D5F8FC30B4
:102FC00013F0807FF7D0DCF8803E13F0010FF2D0D1
:102FD000DCF8003E13F0010FEDD0DCF80030002BE0
:102FE000FBD08CF80020E6E700BE4369028B541C3E
:102FF000048313440A0E83F8F0204369028B541CA7
:10300000048313440A0C83F8F0204369028B541C98
:10301000048313440A0A83F8F0204369028B541C8A
:103020000483134483F8F01030BC7047C4180100C7
:1030300000ED00E038B558B10446006938B3636963
:10304000002B44D001F0AAFC00232361636138BD4A
:1030500030486422304C4FF0604102E010F8012FFC
:103060009AB1D4F8FC3013F0807FF7D0D1F8803ECD
:1030700013F0010FF2D0D1F8003E13F0010FEDD0A4
:103080000B68002BFCD00A70E8E700BEDFE723489E
:103090006422214D4FF0604102E010F8012F9AB1F7
:1030A000D5F8FC3013F0807FF7D0D1F8803E13F0D4
:1030B000010FF2D0D1F8003E13F0010FEDD00B68F4
:1030C000002BFCD00A70E8E700BE6369EBB9144836
:1030D0006422114D4FF0604102E010F8012F9AB1C7
:1030E000D5F8FC3013F0807FF7D0D1F8803E13F094
:1030F000010FF2D0D1F8003E13F0010FEDD00B68B4
:10310000002BFCD00A70E8E700BE206900289BD0A5
:1031100098E700BF0419010000ED00E02419010048
:103120004C19010030B458B1014643693BB30B8BD5
:10313000432B5BD9384C6422384D4FF0604040E05F
:1031400037486422354C4FF0604102E010F8012FFF
:103150009AB1D4F8FC3013F0807FF7D0D1F8803EDC
:1031600013F0010FF2D0D1F8003E13F0010FEDD0B3
:103170000B68002BFCD00A70E8E700BE4AE0294C3F
:103180006422264D4FF0604002E014F8012F9AB1FE
:10319000D5F8FC3013F0807FF7D0D0F8803E13F0E4
:1031A000010FF2D0D0F8003E13F0010FEDD003680C
:1031B000002BFCD00270E8E700BEB8E714F8012F3E
:1031C0009AB1D5F8FC3013F0807FF7D0D0F8803E6C
:1031D00013F0010FF2D0D0F8003E13F0010FEDD044
:1031E0000368002BFCD00270E8E700BE4B690A8B35
:1031F000501C08831344FF2283F8F0204FF0000C8A
:1032000005E04A69581C0883134483F8F0C00B8B0F
:10321000432BF6D930BC7047C419010000ED00E023
:1032200074190100981901002DE9F04160B10C46B4
:103230001546064649B30B69002B5FD092486422BD
:10324000924F4FF0604144E0914964228F484FF023
:10325000604302E011F8012F9AB1D0F8FC4014F05D
:10326000807FF7D0D3F8804E14F0010FF2D0D3F85E
:10327000004E14F0010FEDD01C68002CFCD01A7029
:10328000E8E700BE6FF00D00F3E0824964227F485A
:103290004FF0604302E011F8012F9AB1D0F8FC40E2
:1032A00014F0807FF7D0D3F8804E14F0010FF2D0E5
:1032B000D3F8004E14F0010FEDD01C68002CFCD0A8
:1032C0001A70E8E700BE6FF00500D2E010F8012F99
:1032D0009AB1D7F8FC3013F0807FF7D0D1F8803E58
:1032E00013F0010FF2D0D1F8003E13F0010FEDD032
:1032F0000B68002BFCD00A70E8E700BE6369EBB1F5
:1033000065486422614F4FF0604102E010F8012FE0
:103310009AB1D7F8FC3013F0807FF7D0D1F8803E17
:1033200013F0010FF2D0D1F8003E13F0010FEDD0F1
:103330000B68002BFCD00A70E8E700BE00224FF4B7
:103340009A71104601F0EAFB2061002800F0988095
:103350004389B3F59A7F1DD2504864224B4F4FF0FA
:10336000604102E010F8012F9AB1D7F8FC3013F059
:10337000807FF7D0D1F8803E13F0010FF2D0D1F862
:10338000003E13F0010FEDD00B68002BFCD00A704B
:10339000E8E700BE637B002B6DD0414B1B682360C8
:1033A00023695A686261012313706269537063690B
:1033B00096F826209A7063690027DF70D4F814808D
:1033C0002068FFF72FFDC8F8040063691F81636957
:1033D0005F816369DF60082D08D0042D06D0032DBE
:1033E00007D1237B043BDBB2012B02D863697268EF
:1033F000DA606269002313616269536162699361F3
:103400009C4606F1270096F826109AB291428CBF8E
:10341000C15C614662691A4411770133102BF2D105
:103420000023194662691A4482F82C100133402B9C
:10343000F8D100231A466069184480F86C200133E3
:10344000802BF8D16369174AC3F8EC20002323834B
:103450006169194481F8F0300133442BF8D101221D
:1034600035212046FFF728FD29462046FFF7F2FCCC
:103470000020BDE8F081FDF741F9094B18608CE7A9
:103480004FF0FF30F5E700BF441A010000ED00E007
:10349000041A0100241A01006C1A0100941A010098
:1034A000200F00206382536370B582B00646046A21
:1034B00004212046FFF7C6FC032221463046FFF7D1
:1034C000B3FE0546B0B1637B0133DBB26373092BF6
:1034D0002DD8C3EB431203EB8203DB009BB203F254
:1034E000F3139BB2134A82FB03235B1163832846C9
:1034F00002B070BD022239212046FFF7DDFCB18CFD
:103500002046FFF713FD2046FFF70CFE218BF0311C
:1035100089B2206901F06AFC216960680096432342
:10352000054A06F03BFB2046FFF784FDCBE742F25D
:103530001073D4E7D34D6210F016010070B582B05D
:103540000646046A0023636206212046FFF77AFCE0
:10355000012221463046FFF767FE0546B0B1637B86
:103560000133DAB26273052A9DBF4FF47A73934038
:103570009BB24EF6602303F2F3139BB21C4A82FB0C
:1035800003235B116383284602B070BD02223921F8
:103590002046FFF791FCB18C2046FFF7C7FC0422C0
:1035A00037212046FFF788FC01212046FFF752FC17
:1035B00003212046FFF74EFC1C212046FFF74AFC62
:1035C00006212046FFF746FC2046FFF7ABFD218B86
:1035D000F03189B2206901F009FC21696068009628
:1035E0004323044A06F0DAFA2046FFF723FDB6E744
:1035F000D34D6210F016010070B582B00646046A21
:1036000001212046FFF71EFC032221463046FFF72A
:103610000BFE0546B0B1637B0133DAB26273052A53
:103620009DBF4FF47A7393409BB24EF6602303F232
:10363000F3139BB2284A82FB03235B116383284662
:1036400002B070BD022239212046FFF735FCB18C53
:103650002046FFF76BFC042232212046FFF72CFCAA
:10366000606AFFF7EBFB01462046FFF799FC042256
:1036700036212046FFF720FC206AFFF7DFFB0146DA
:103680002046FFF78DFC042237212046FFF714FC6B
:1036900001212046FFF7DEFB03212046FFF7DAFB7E
:1036A0001C212046FFF7D6FB06212046FFF7D2FB60
:1036B0002046FFF737FD218BF03189B2206901F0F8
:1036C00095FB2169606800964323044A06F066FA78
:1036D0002046FFF7AFFC9EE7D34D6210F0160100C5
:1036E00070B582B00646046A03212046FFF7AAFBA4
:1036F000032221463046FFF797FD0546B0B1637BB4
:103700000133DBB26373092B3AD8C3EB431203EBEB
:103710008203DB009BB203F2F3139BB21A4A82FBD3
:1037200003235B116383284602B070BD0222392156
:103730002046FFF7C1FB4FF410712046FFF7F6FB60
:10374000042232212046FFF7B7FB606AFFF776FBC1
:1037500001462046FFF724FC2046FFF7E3FC218BBF
:10376000F03189B2206901F041FB2169606800965F
:103770004323064A06F012FA2046FFF75BFCBEE739
:1037800042F21073C7E700BFD34D6210F01601007C
:1037900070B582B00646046A05212046FFF752FB49
:1037A000032221463046FFF73FFD0546B0B1637B5B
:1037B0000133DBB26373092B2ED8C3EB431203EB47
:1037C00082031B019BB203F2F3139BB2144A82FBE8
:1037D00003235B116383284602B070BD02223921A6
:1037E0002046FFF769FBB18C2046FFF79FFB204680
:1037F000FFF798FC218BF03189B2206901F0F6FACD
:10380000216960680096432304F1200206F0C6F99E
:103810002046FFF70FFCCAE744F62063D3E700BF5A
:10382000D34D621010B5164B1C6874B910BD236AD5
:103830001B7B03F0FB02012A01D00A2B02D1204698
:10384000FFF732FE2468002CF0D0236A002BF9D059
:10385000DA8B511ED983012AE9D0226A938B591E33
:103860009183012BEED1236A1B7B03F0FB02012A1B
:1038700001D00A2BE6D12046FFF78AFFE2E700BF1E
:10388000E83E002070B582B00546046A002120465B
:10389000FFF7D8FA002323626362A362E362A363A3
:1038A00063632363072221462846FFF7BDFC0646D3
:1038B00030B3637B0133DBB26373092B35D8C3EBC1
:1038C000431203EB8203DB009BB203F2F3139BB2C0
:1038D000174A82FB03235B116383284600F027FF0E
:1038E000144C2146284600F057FE2146284600F099
:1038F000EDFE2146284600F0EFFE304602B070BDD6
:103900002046FFF70FFC218BF03189B2206901F0CE
:103910006DFA216960680095432304F1200206F0E6
:103920003DF92046FFF786FBC3E742F21073CCE770
:10393000D34D6210EC16010038B5294B1C68002CE1
:103940004DD0002504E0012A0BD02468002C46D07D
:10395000236A002BF9D05A8B012AF4D9013A5A83F1
:10396000F3E75D83226A137B0C2B10D0062B0ED05D
:10397000012B10D0052B1CD0042B1ED0032BE4D11F
:10398000537B012B27D92046FFF7D8FDDDE72046E2
:10399000FFF7D4FDD9E7537B052B03D82046FFF76B
:1039A0002BFED2E72046FFF76DFF2046FFF7C6FD4E
:1039B000CBE72046FFF7ECFEC7E7537B082B03D885
:1039C0002046FFF771FDC0E72046FFF75BFF20466A
:1039D000FFF7B4FDB9E72046FFF782FEB5E738BD33
:1039E000E83E002008B5FCF766FE00F05FF900F045
:1039F000C5FC00F0CFFD08F05FFC05F00CFF01F006
:103A000087FEFEF747F800F08FF808BDF8B50546C9
:103A10000F4616460C2000F0EDFC88B1044600234A
:103A200003608760C66045601F4B1B683BB35A68E4
:103A3000AA4227D9521B5A6003601B4B1860F8BD7D
:103A40001A4873221A4C4FF0604102E010F8012F1F
:103A50009AB1D4F8FC3013F0807FF7D0D1F8803ED3
:103A600013F0010FF2D0D1F8003E13F0010FEDD0AA
:103A70000B68002BFCD00A70E8E700BEDFE70A4BBA
:103A80001860DCE7656858682A1A62601E461B6881
:103A90002BB159688A42F5D2491B014459603368F9
:103AA00023603460CBE700BF240F0020D41A01004C
:103AB00000ED00E008B50A4B1B6853B9094B1B68C1
:103AC00043B1074B01221A6000220749FA20FFF791
:103AD0009DFF08BD054B1B68002BF2D1F9E700BF25
:103AE000280F0020F43E0020F13A0000103F002093
:103AF00008B502F0CBFD084B1B682BB1002207492B
:103B0000FA20FFF783FF08BD054B1B68002BF5D19A
:103B1000044B00221A60F6E7F43E0020F13A000060
:103B2000103F0020280F002008B500220E494FF456
:103B30007A70FFF76BFF00220C4941F28830FFF7E3
:103B400065FF00220A494EF66020FFF75FFF002262
:103B500008494FF4FA70FFF759FF00220649642024
:103B6000FFF754FF08BD00BFDD3B0000C53B000070
:103B7000AD3B0000953B00007D3B000008B5FEF723
:103B80006FF8002202496420FFF740FF08BD00BF24
:103B90007D3B000008B5FFF7CFFE002202494FF43D
:103BA000FA70FFF733FF08BD953B000008B5FFF73B
:103BB00039FE002202494EF66020FFF727FF08BDBC
:103BC000AD3B000008B5FCF707FF0022024941F2B7
:103BD0008830FFF71BFF08BDC53B000008B5FEF7A6
:103BE0002BFE002202494FF47A70FFF70FFF08BD49
:103BF000DD3B000008B58C46104B1968E1B100228E
:103C000007E00A680D4B1A600DE00B680A469BB18D
:103C100019468B688342F8D1CB686345F5D1002AF9
:103C2000EFD00B6813600B681BB15A6848680244F8
:103C30005A600C2000F03AFC08BD00BF240F0020A1
:103C40002DE9F84306460F46174C0C2515E00022D7
:103C500039463046FCF79CFCBDE8F88321680B68C8
:103C60002360D1F80880D1F80C90284600F01EFCA3
:103C7000B8F1000F01D04846C0472368002BE6D0BA
:103C80005A68002AEAD039463046FCF781FCB0F188
:103C9000FF3FE3D0044B1A685368834287BF181A6A
:103CA000506000235360D7E7240F002010B51B4B52
:103CB00023F003031A4A13604FF480501880002247
:103CC0005A801A711A1817490A600121117110805F
:103CD0005080154A13601548FCF79CFCE8B1662239
:103CE0001348144C4FF0604102E010F8012F9AB1D4
:103CF000D4F8FC3013F0807FF7D0D1F8803E13F079
:103D0000010FF2D0D1F8003E13F0010FEDD00B6897
:103D1000002BFCD00A70E8E700BE10BD3F0F00206A
:103D2000340F0020380F00202C0F0020300F00200F
:103D3000141B010000ED00E0002800F0628170B566
:103D4000044610F0030F1DD085486D22854D4FF0BD
:103D5000604102E010F8012F9AB1D5F8FC3013F061
:103D6000807FF7D0D1F8803E13F0010FF2D0D1F868
:103D7000003E13F0010FEDD00B68002BFCD00A7051
:103D8000E8E700BE784B1B68A34206D8774B1B6858
:103D9000A3422DD876486D2201E075486D22714D01
:103DA0004FF0604102E010F8012F9AB1D5F8FC30D5
:103DB00013F0807FF7D0D1F8803E13F0010FF2D0DE
:103DC000D1F8003E13F0010FEDD00B68002BFCD0B2
:103DD0000A70E8E700BE644B1B68A34203D8634B3C
:103DE0001B68A34204D8FCF77FFCFCF782FC70BD83
:103DF00000216048FCF72AFCA4F1080014F8043CF8
:103E0000EBB95D4D6D22574E4FF0604102E015F861
:103E1000012F9AB1D6F8FC3013F0807FF7D0D1F89B
:103E2000803E13F0010FF2D0D1F8003E13F0010FE5
:103E3000EDD00B68002BFCD00A70E8E700BE002331
:103E400004F8043C4D4B1B68834284BF4B4B186005
:103E5000454B1B68984280F0CE80494D7022414E00
:103E60004FF0604102E015F8012F9AB1D6F8FC300E
:103E700013F0807FF7D0D1F8803E13F0010FF2D01D
:103E8000D1F8003E13F0010FEDD00B68002BFCD0F1
:103E90000A70E8E700BE354B1B6898421DD3394DC8
:103EA0007022304E4FF0604102E015F8012F9AB1B8
:103EB000D6F8FC3013F0807FF7D0D1F8803E13F0B5
:103EC000010FF2D0D1F8003E13F0010FEDD00B68D6
:103ED000002BFCD00A70E8E700BE14F8043CEBB1FC
:103EE000294D70221F4E4FF0604102E015F8012F5E
:103EF0009AB1D6F8FC3013F0807FF7D0D1F8803E2D
:103F000013F0010FF2D0D1F8003E13F0010FEDD005
:103F10000B68002BFCD00A70E8E700BE34F8083CC0
:103F2000B3F5805F35D9194D70220E4E4FF06041C8
:103F300002E015F8012F5AB3D6F8FC3013F0807F59
:103F4000F7D0D1F8803E13F0010FF2D0D1F8003E47
:103F500013F0010FEDD00B68002BFCD00A70E8E7DE
:103F6000301B010000ED00E0340F0020380F00206E
:103F7000541B0100300F00206C1B01002C0F00208F
:103F8000801B0100981B0100B41B0100D01B010025
:103F900000BE1C4B1B6834F8081C5A18904212D003
:103FA000157985B9184D2D68AA420CD0174D2D688A
:103FB000AA4204BF154A10605A5A24F8082C5A5ACB
:103FC0001A44C11A518034F8061C5A1890420ED077
:103FD000157965B90D4D2D68A84204BF0B480260E4
:103FE00034F8082C5A5234F8082C134459800848E5
:103FF000FCF751FBFBE6044B1B689842BFF44FAF44
:104000008CE77047340F0020380F00202C0F002061
:10401000300F0020F8B5054603314FF6FC760E4010
:104020000B2E04D9B6F5805F02D9002047E00C269C
:10403000574B1B68AB4206D8564A1268AA4228D88A
:10404000554C6D2201E0544C6D2254484FF06041B4
:1040500002E014F8012F9AB1D0F8FC3013F0807F01
:10406000F7D0D1F8803E13F0010FF2D0D1F8003E26
:1040700013F0010FEDD00B68002BFCD00A70E8E7BD
:1040800000BE434B1B68AB4214D8424A1268AA4296
:1040900010D9A5F10807FB1A9FB235F8084C083C67
:1040A000E41BA4B2B44249D23D486D223B4C4FF0D0
:1040B000604108E0FCF718FBFCF71BFB2846F8BD45
:1040C00010F8012F9AB1D4F8FC3013F0807FF7D0AC
:1040D000D1F8803E13F0010FF2D0D1F8003E13F07A
:1040E000010FEDD00B68002BFCD00A70E8E700BE92
:1040F0000020E4E799182B4C216036E006F1140209
:10410000A2423FD806F108023A4492B299182548D3
:104110000068884284BF234801600020087135F898
:10412000080C98524F8025F8082C995AB1F5805FF9
:104130001CBF5B185A8025E02846C0E7B442FBD07C
:1041400000211948FCF782FA114B1B6835F8082C3E
:10415000991808790028D1D1985A06F108023A44F2
:1041600092B2104C24688C42C4D0991800240C716F
:1041700098524F8025F8082C995AB1F5805F01D0EC
:104180000B445A800848FCF786FA284697E700BF98
:10419000340F0020380F0020FC1B010000ED00E070
:1041A000141C01002C0F0020300F0020002800F00C
:1041B000CB80F8B5034603334FF6FC751D400B2D3D
:1041C00016D9B5F5805F00F2C18000216348FCF785
:1041D0003DFA634B1F68634B19687B1A9BB2C5F5A8
:1041E0008050834280F2AB806FF0070E2E4672E063
:1041F0000C25EAE701232371A74200F0938057487A
:10420000FCF749FA08362644574B1B68B3421DD2C7
:1042100056486D22564D4FF0604102E010F8012FD4
:104220009AB1D5F8FC3013F0807FF7D0D1F8803EFA
:1042300013F0010FF2D0D1F8003E13F0010FEDD0D2
:104240000B68002BFCD00A70E8E700BE14F0030FE7
:104250003BD048486D22464D4FF0604102E010F8D7
:10426000012F9AB1D5F8FC3013F0807FF7D0D1F848
:10427000803E13F0010FF2D0D1F8003E13F0010F91
:10428000EDD00B68002BFCD00A70E8E700BE3A487E
:104290006D22374D4FF0604102E010F8012F9AB1C6
:1042A000D5F8FC3013F0807FF7D0D1F8803E13F0C2
:1042B000010FF2D0D1F8003E13F0010FEDD00B68E2
:1042C000002BFCD00A70E8E700BE04F108003AE0D9
:1042D0002388834233DACC182279002AF8D1CA5ACB
:1042E000AEEB030C6244AA42F2D306F11400824200
:1042F00080D305F108021A4492B28818002505718E
:1043000025888D5243802280012323718B5AB3F577
:10431000805F3FF471AF0B445A80A7427FF46FAFC8
:104320002379C3B1104B18682346984210D01B88DC
:104330000B441A79002AF8D1094A13605FE707484D
:10434000FCF7A9F90020F8BD002070470020FAE72B
:10435000034A136053E72346EEE700BF300F002007
:104360002C0F0020340F0020380F0020341C0100D7
:1043700000ED00E0641C0100941C01002DE9F047F1
:10438000184D25F00305184BA3F1040E174F184ED6
:1043900003F138094FF0000A13E00346196003EBFC
:1043A0000C000132194693B29C42F6D8631E9BB2B0
:1043B0000CFB03530CFB0455C8F800300236F145E2
:1043C0000ED00EF1040EF046CEF800A037F8024FE2
:1043D000002CF3D0B6F800C02B4600221146DDE7D2
:1043E000BDE8F087531F0020A83E0020261D0100D5
:1043F000481D010070B50E2813D80446FCF774F967
:10440000264B53F82450002D43D02A6843F824202B
:1044100015F0030F3DD0224C6D22224E4FF060412B
:1044200022E021486D221F4C4FF0604102E010F85D
:10443000012F9AB1D4F8FC3013F0807FF7D0D1F877
:10444000803E13F0010FF2D0D1F8003E13F0010FBF
:10445000EDD00B68002BFCD00A70E8E700BE002509
:1044600019E014F8012F9AB1D6F8FC3013F0807FD0
:10447000F7D0D1F8803E13F0010FF2D0D1F8003E12
:1044800013F0010FEDD00B68002BFCD00A70E8E7A9
:1044900000BEFCF72EF9284670BD00BFA83E0020E4
:1044A000D81C010000ED00E0B81C0100002967D015
:1044B00070B505460E4611F0030F1DD0314C6D222C
:1044C00031484FF0604102E014F8012F9AB1D0F862
:1044D000FC3013F0807FF7D0D1F8803E13F0010F4D
:1044E000F2D0D1F8003E13F0010FEDD00B68002B95
:1044F000FCD00A70E8E700BEFCF7F6F8234B53F84F
:104500002520326043F82560194603F13C0C0AE08F
:1045100012681B682AB123B19A4210D01B68002B85
:10452000F6D1614529D051F8042B002AF9D013683F
:10453000002BF6D09A42F1D1154C6D2301E0144CBA
:104540006D23114D4FF0604102E014F8013F9BB123
:10455000D5F8FC2012F0807FF7D0D1F8802E12F031
:10456000010FF2D0D1F8002E12F0010FEDD00A6841
:10457000002AFCD00B70E8E700BEFCF7BAF870BD6B
:10458000704700BFFC1C010000ED00E0A83E0020C9
:104590001C1D01007047000070B50446002927D09B
:1045A0000D460A6843689A4205D0124B186858B9FC
:1045B000114B1B688BB92B68636070BDC66802F035
:1045C00015F930460028F3D0026863689A42F5D0A6
:1045D000C068F7E7DB68002BEDD0002BFAD01A6833
:1045E000002AF7D061688A4204BF2A681A60F1E79E
:1045F0000023E1E7F43E0020003F002070B50446B0
:1046000016461D46FFF7C8FF2EB13368A36025B1DB
:104610002B68E36070BD0023F8E70023F9E7000092
:10462000F8B50446079F0FB300206060A060E0600B
:1046300084F82D00206260630698E0611F4D2878A1
:10464000461C2E7084F83000089820612046FFF741
:10465000D5FF2046B84778BB194B1A6822601C600A
:1046600094F92D30002B23DB2046F8BD154E4E2546
:10467000DFF854E04FF0604C02E016F8015FADB196
:10468000DEF8FC0010F0807FF7D0DCF8800E10F030
:10469000010FF2D0DCF8000E10F0010FEDD0DCF8C5
:1046A00000000028FBD08CF80050E6E700BEBBE716
:1046B0002046FDF745FAD7E70024D5E7EC3E002079
:1046C000E83E0020681D010000ED00E011B10B681C
:1046D000C36070470023FBE711B10B68836070472C
:1046E0000023FBE7014B1860704700BFE43E002049
:1046F00090F82D3013F0010F18D110B5044643F097
:10470000010280F82D2013F0100F06D013F0200FB7
:1047100004D194F92D30002B04DB10BD011DFCF7F2
:1047200091F9F6E72046FDF7C3F9F6E7704708B5BB
:1047300090F82D3013F0010F06D023F0010280F81D
:104740002D2013F0200F00D108BDFCF765F9FBE721
:1047500010B5FBF7C9FF0C4B1C78E4B201221A70AC
:10476000FBF7C7FF04B110BD00221146074808F04F
:1047700041FB0028F7D0FBF7B7FF034B00221A706C
:10478000FBF7B7FFEFE700BFED3E002091470000C9
:1047900010B5FBF7A9FF094B00221A70FBF7A9FF20
:1047A000074B1C684CB1606F18B9E468002CFAD153
:1047B00003E001F070F90023636710BDED3E0020B7
:1047C000F43E002030B5039C03281ED8DFE800F03B
:1047D0003C023E1B2220033020F0030C8C44BDF829
:1047E00010E0F44534DC00251D6014B120F0030016
:1047F00004445C6002205873198159811A730122A4
:10480000DA81184630BD0020E5E7124970221248CF
:104810004FF06043D0F8FC4014F0807F0DD0D3F807
:10482000804E14F0010F08D0D3F8004E14F0010FA1
:1048300003D01C68002CFCD01A7011F8012F002A3C
:10484000E8D100BE0020DDE73620C4E70E20C2E735
:104850000020D7E7801D010000ED00E010B4C0B1DA
:104860000346002900F08F80002932DB8CB21A7BCE
:104870005868002A52D0032A50D0013A92B2012A35
:104880005BD800297BDA5A89A2427AD3401A586051
:104890004AE03E4970203E4C4FF0604202E011F881
:1048A000010F98B1D4F8FC3013F0807FF7D0D2F824
:1048B000803E13F0010FF2D0D2F8003E13F0010F4A
:1048C000EDD01368002BFCD01070E8E700BE10BCE0
:1048D00070474C42A4B25A89A242C8D22D486922DC
:1048E0002B4C4FF0604102E010F8012F9AB1D4F840
:1048F000FC3013F0807FF7D0D1F8803E13F0010F29
:10490000F2D0D1F8003E13F0010FEDD00B68002B70
:10491000FCD00A70E8E700BE0120D8E7421A03F194
:104920001000824229D35A6089B25A890A445A81B6
:104930001A89114419810020C9E717486222144CD2
:104940004FF0604103E00A7010F8012F92B1D4F8E3
:10495000FC3013F0807FF7D0D1F8803E13F0010FC8
:10496000F2D0D1F8003E13F0010FEDD00B68002B10
:10497000FCD0E8E700BE0120A9E70120A7E701205D
:10498000A5E70120A3E70020A1E700BF381A010036
:1049900000ED00E0A41D0100C41D01002DE9F0415F
:1049A00048B10446037B032B3ED957487022574D2C
:1049B0004FF0604123E05649702754484FF0604261
:1049C00002E011F8017F9FB1D0F8FC3013F0807F36
:1049D000F7D0D2F8803E13F0010FF2D0D2F8003EAB
:1049E00013F0010FEDD01368002BFCD01770E8E72F
:1049F00000BE3846BDE8F08110F8012F9AB1D5F815
:104A0000FC3013F0807FF7D0D1F8803E13F0010F17
:104A1000F2D0D1F8003E13F0010FEDD00B68002B5F
:104A2000FCD00A70E8E700BE0027DFF8E0804FF016
:104A300060463BE03749702202E011F8012F9AB13D
:104A4000D8F8FC3013F0807FF7D0D6F8803E13F012
:104A5000010FF2D0D6F8003E13F0010FEDD033680D
:104A6000002BFCD03270E8E700BE24E011F8012FE3
:104A70009AB1D8F8FC3013F0807FF7D0D6F8803E9A
:104A800013F0010FF2D0D6F8003E13F0010FEDD075
:104A90003368002BFCD03270E8E700BE2369204663
:104AA00098470137FFB2002DA3D02C46FBF71CFE20
:104AB000E389002BBED0E589013DADB2E581FBF76E
:104AC00018FE002D95D12568637B13F0020F05D0E9
:104AD0002369002BE2D110497022CAE7237B032B04
:104AE00007D0013B9BB2012B08D92046FFF724F9E0
:104AF000D7E721460E20FFF7D9FCD2E721460D204B
:104B0000FFF7D4FCCDE700BFD41D010000ED00E0AD
:104B1000381A0100EC1D0100041E01002DE9F047C8
:104B20000E46144603282BD8DFE800F04A024C2832
:104B30002225022C48D8002C40F01C8105F11300DE
:104B400020F00300F31C23F00303184480B2FFF7A6
:104B50002DFB804678B14319133323F003034360E0
:104B6000068146810023036003730123A8F80E30F9
:104B7000002388F80D304046BDE8F0870025D8E7CF
:104B80009449702294484FF06043D0F8FC4014F0F0
:104B9000807F0DD0D3F8804E14F0010F08D0D3F8E9
:104BA000004E14F0010F03D01C68002CFCD01A70CA
:104BB00011F8012F002AE8D100BE4FF00008DAE713
:104BC0003625B6E70E25B4E7032C40F0E1800E2031
:104BD000FFF710FC8046E8B1032303730023036052
:104BE0004319133323F0030343600681EA1C22F0C8
:104BF0000302C2F51472B242A8BF3246428100F5E8
:104C000018791344994520D274486322724C4FF0AE
:104C1000604105E0FFF79CFDADE710F8012F9AB168
:104C2000D4F8FC3013F0807FF7D0D1F8803E13F039
:104C3000010FF2D0D1F8003E13F0010FEDD00B6858
:104C4000002BFCD00A70E8E700BE0123A8F80E3064
:104C5000B8F80A30F61A002E87DD45465E4F4FF051
:104C600060445DE0FFF774FD4046FFF797FEA846FD
:104C700081E75B49722202E011F8012F9AB1D7F85F
:104C8000FC3013F0807FF7D0D4F8803E13F0010F92
:104C9000F2D0D4F8003E13F0010FEDD02368002BC2
:104CA000FCD02270E8E700BE4CE04E49702202E0E2
:104CB00011F8012F9AB1D7F8FC3013F0807FF7D0AC
:104CC000D4F8803E13F0010FF2D0D4F8003E13F078
:104CD000010FEDD02368002BFCD02270E8E700BE66
:104CE0003EE011F8012F9AB1D7F8FC3013F0807F25
:104CF000F7D0D4F8803E13F0010FF2D0D4F8003E84
:104D000013F0010FEDD02368002BFCD02270E8E7F0
:104D100000BE0123EB816B89F61A002E7FF725AFC9
:104D2000AA460E20FFF766FB054600289AD003230B
:104D30000373002343730360CAF800004FF6FE7349
:104D40009E4296DCB3B22B81B3F5147F28BF4FF49B
:104D500014736B8105F110036B6013F0030FA4D182
:104D6000B8F80A20D8F8043013449945D1D21B4929
:104D70006322B9E70D20FFF73DFB804600283FF492
:104D8000FAAE002343600681468103600473ECE6BB
:104D900015487023104C4FF0604102E010F8013FBD
:104DA0009BB1D4F8FC2012F0807FF7D0D1F8802E90
:104DB00012F0010FF2D0D1F8002E12F0010FEDD059
:104DC0000A68002AFCD00B70E8E700BE4FF000082C
:104DD000D1E600BF281E010000ED00E0441E0100E6
:104DE000781E01008C1E0100BC1E01002DE9F84355
:104DF000044640B1237B032B3CD966487023664EA2
:104E00004FF0604221E0654D7022634E4FF06040EC
:104E100002E015F8012F9AB1D6F8FC3013F0807F2C
:104E2000F7D0D0F8803E13F0010FF2D0D0F8003E5A
:104E300013F0010FEDD00368002BFCD00270E8E7FF
:104E400000BED7E710F8013F9BB1D6F8FC5015F033
:104E5000807FF7D0D2F8805E15F0010FF2D0D2F843
:104E6000005E15F0010FEDD01568002DFCD0137019
:104E7000E8E700BEB4F808C08C4560D9A1EB0C0E81
:104E8000628991424ED90D464FF6FE774FF0670882
:104E9000414E4FF06043F4464FF070091FE010F8A8
:104EA000011F99B1D6F8FC2012F0807FF7D0D3F81B
:104EB000802E12F0010FF2D0D3F8002E12F0010F65
:104EC000EDD01A68002AFCD01970E8E700BE2289EC
:104ED0006244228124684CB16289AA4223D2AA1A70
:104EE00095B2BE45F3DD2E484146DBE72D484946E5
:104EF00002E010F8011F99B1D6F8FC2012F0807F73
:104F0000F7D0D3F8802E12F0010FF2D0D3F8002E94
:104F100012F0010FEDD01A68002AFCD01970E8E7F2
:104F200000BED9E70D46237B0BB9AA4209D16581A2
:104F30002581206808B1FFF731FD00232360BDE81B
:104F4000F88363681B1BE91889B22046FFF762F8F3
:104F500004460028EBD114496D220F4E4FF06040FB
:104F600002E011F8012F9AB1D6F8FC3013F0807FDF
:104F7000F7D0D0F8803E13F0010FF2D0D0F8003E09
:104F800013F0010FEDD00368002BFCD00270E8E7AE
:104F900000BECCE7F01E010000ED00E0D81E0100CD
:104FA0000C1F0100201F0100381F0100034630B113
:104FB00000200130C0B21B68002BFAD170470020DE
:104FC000704748B110B50446FBF78EFBE389013307
:104FD000E381FBF78EFB10BD7047000070B428B171
:104FE000844649B1026822BB02462CE03B48282295
:104FF0003B4C4FF0604105E038482822F8E710F8B4
:10500000012F9AB1D4F8FC3013F0807FF7D0D1F89B
:10501000803E13F0010FF2D0D1F8003E13F0010FE3
:10502000EDD00B68002BFCD00A70E8E700BE53E01F
:105030001A46BCF8083008890344ACF808301368F5
:105040009446002BF4D15089138998423FD0254DC6
:105050007020234E4FF0604402E015F8010F98B124
:10506000D6F8FC3013F0807FF7D0D4F8803E13F0F0
:10507000010FF2D0D4F8003E13F0010FEDD02368F9
:10508000002BFCD02070E8E700BE1368FBB1164C83
:105090007020134D4FF0604C02E014F8010FA8B1DE
:1050A000D5F8FC3013F0807FF7D0DCF8803E13F0A9
:1050B000010FF2D0DCF8003E13F0010FEDD0DCF868
:1050C0000030002BFBD08CF80000E6E700BE13890F
:1050D000088903441381116070BC7047541F01009C
:1050E00000ED00E08C1F0100BC1F010010B50C4654
:1050F000FFF774FF2046FFF764FF10BD2DE9F0476E
:10510000A0B10F468046A1B102890B899A4207D30C
:105110004FF000094E46DFF85CA24FF0604577E0A3
:1051200095497023934C4FF0604208E092497023F8
:10513000F8E791497023F5E711F8013F9BB1D4F8E6
:10514000FC0010F0807FF7D0D2F8800E10F0010F35
:10515000F2D0D2F8000E10F0010FEDD01068002848
:10516000FCD01370E8E700BE6FF00D007DE08349CE
:105170006F2203E02A7011F8012F92B1DAF8FC30A7
:1051800013F0807FF7D0D5F8803E13F0010FF2D0F6
:10519000D5F8003E13F0010FEDD02B68002BFCD0AA
:1051A000E8E700BE50E076496F2203E02A7011F86C
:1051B000012F92B1DAF8FC3013F0807FF7D0D5F8E8
:1051C000803E13F0010FF2D0D5F8003E13F0010F2E
:1051D000EDD02B68002BFCD0E8E700BE37E04FF0A5
:1051E0000009D8F80080B8F1000F3CD00026002F4D
:1051F00000F0A3807A893B899A4259D0B8F1000F18
:1052000006D0B8F80820B8F80A309A4200F09E801C
:10521000B8F80A307C89991BA4EB09029142ACBF13
:1052200014469C1BA4B2D8F804007968224649446D
:1052300030440BF045FC2644B6B24C441FFA84F9C6
:10524000B8F80A30B34292D37B894B45ABD37B8904
:105250004B4500F286803F68B8F80A30B342BED0B2
:105260004FF00009C3E700200FB9BDE8F0874549BA
:105270007023404C4FF0604002E011F8013F9BB1B9
:10528000D4F8FC2012F0807FF7D0D0F8802E12F0F6
:10529000010FF2D0D0F8002E12F0010FEDD002680D
:1052A000002AFCD00370E8E700BE6FF00D00DCE7D9
:1052B0003B68002BA2D0344970222E4C4FF0604046
:1052C00002E011F8012F9AB1D4F8FC3013F0807F7E
:1052D000F7D0D0F8803E13F0010FF2D0D0F8003EA6
:1052E00013F0010FEDD00368002BFCD00270E8E74B
:1052F00000BE6FF00500B8E7234970221D4C4FF047
:10530000604003E0027011F8012F92B1D4F8FC3034
:1053100013F0807FF7D0D0F8803E13F0010FF2D069
:10532000D0F8003E13F0010FEDD00368002BFCD045
:10533000E8E700BE6FF0050097E7B8F1000F0ED068
:10534000B8F80820B8F80A309A4210D1D8F80030DE
:10535000002BD1D1002F7FF45BAF002085E7002028
:1053600083E7B8F80A30B3427FF444AF39E700204E
:105370007BE700BF00ED00E0CC1F0100FC1F010037
:105380001420010030200100402001002DE9F047E9
:1053900048B188469246054639B3174612B30027EE
:1053A0003E46B9465DE033487022334C4FF06041D1
:1053B00002E010F8012F9AB1D4F8FC3013F0807F8E
:1053C000F7D0D1F8803E13F0010FF2D0D1F8003EB3
:1053D00013F0010FEDD00B68002BFCD00A70E8E74A
:1053E00000BE00273846BDE8F08724487022224CD2
:1053F0004FF0604102E010F8012F9AB1D4F8FC3070
:1054000013F0807FF7D0D1F8803E13F0010FF2D077
:10541000D1F8003E13F0010FEDD00B68002BFCD04B
:105420000A70E8E700BE0027DCE76C89E41AA4B242
:10543000544528BF544669682246194408EB0600C3
:105440000BF03EFB2744BFB22644B6B2AAEB0404DD
:105450001FFA84FA4B462D68BAF1000FC2D0002D16
:10546000C0D0002BE1D06A899A42DED89B1A9BB249
:10547000F1E700BF6C20010000ED00E08C2001008E
:105480002DE9F04743685E7A184B1C685CB3074609
:105490000025DFF85C80DFF85C9003E0E3682546D8
:1054A000FBB11C46237CB342F8D123681BB1D9F869
:1054B00000209342F2D1D4F814A0BAF1000FEDD03D
:1054C00043463A462146A069D0470028E6D02DB190
:1054D000E368EB60054B1A68E2601C600120BDE8E0
:1054E000F0870020FBE70020F9E700BFF03E002036
:1054F000100F00200C0F002019B10B680360002072
:1055000070470023FAE719B10B6843600020704729
:105510000023FAE74161826170470000F0B585B071
:1055200004460D46164614212846FFF797F958B34E
:10553000002211460120FFF7F1FA0746002859D052
:105540002B89EBB93046FCF769FC0346002849D0AB
:1055500021460CB1226802B9191D0293237C0193E4
:10556000637A0093A37A32463846FCF767FE044616
:10557000BD4202D03846FFF711FA204605B0F0BD13
:105580002946FFF7B3FDDDE76FF013012846FFF76B
:1055900065F930B93046FCF741FC034680B32F462D
:1055A000D6E719494323194C4FF0604002E011F847
:1055B000013F9BB1D4F8FC2012F0807FF7D0D0F8E7
:1055C000802E12F0010FF2D0D0F8002E12F0010F51
:1055D000EDD00268002AFCD00370E8E700BE4FF06F
:1055E000FF34CAE7BD4208D03846FFF7D7F96FF05D
:1055F0000304C2E74FF0FF34BFE76FF00304BCE7DA
:105600006FF00304B9E700BFB020010000ED00E037
:1056100008B5021DFFF782FF08BD000008B501466E
:105620000B4B1A68824201D062B902E0C268084B93
:105630001A600020FEF73AFF08BDCB68D360002B4C
:10564000F7D01A46D368002BF3D08B42F9D1F4E798
:10565000F03E002010B504460020FEF7CBFE0346C6
:1056600068B1002202604260826002614261826130
:105670000474FF228272034A1168C16010601846E8
:1056800010BD00BFF03E002000B9704710B582B0D9
:105690000446002101A8FAF7BDFF08B102B010BD11
:1056A000214601A8FAF7D2FF01A8FAF7FCFFF5E7B7
:1056B0006FF009007047000030B5134B18884FF4A5
:1056C00080444FF6FF7E4FF4404502E0013CA4B217
:1056D000B4B170451ABF013080B228460B4901F1C0
:1056E000100C51F8043B1B682BB15A8B8242EDD051
:1056F000DB68002BF9D16145F3D1034B188030BD35
:10570000014B18802046FAE70400002060240100C5
:1057100070470000F8B5037E03BB05460C46037ACC
:1057200013F0040F0CBF04270327002A37D0324E92
:1057300006EB870756F8043B1B68002B41D1B742A4
:10574000F8D114B1236803B12B606A832B4B1A681C
:10575000EA601D60FEF7AEF9002042E0284974229D
:10576000284C4FF0604302E011F8012F9AB1D4F8B1
:10577000FC0010F0807FF7D0D3F8800E10F0010FFE
:10578000F2D0D3F8000E10F0010FEDD01868002809
:10579000FCD01A70E8E700BE6FF0050021E0FFF7CB
:1057A0008BFF02460028C2D16FF0010019E0196892
:1057B000A9B1BCB12068C0B1814219D0DB68002B0F
:1057C000BDD0B3F81AC09445F8D195F808C01CF0C4
:1057D000040FECD0197A11F0040FEFD1E7E76FF066
:1057E0000700F8BD6FF00700FBE76FF00700F8E770
:1057F0006FF00700F5E700BF60240100FC3E0020C9
:10580000D820010000ED00E038B5037E4BB9044616
:10581000037A13F0040F2FD03B4B1B6863B3418B0B
:1058200021E03A4874223A4C4FF0604102E010F80F
:10583000012F9AB1D4F8FC3013F0807FF7D0D1F863
:10584000803E13F0010FF2D0D1F8003E13F0010FAB
:10585000EDD00B68002BFCD00A70E8E700BE0025F5
:105860004FE0DB6843B15A8B8A42FAD1186822684C
:105870009042F6D1002544E00320FEF7BBFD05462B
:1058800000283ED023690361638B438301230376A1
:10589000637E4376237A43F002030372A37A837212
:1058A000637A437223680360638BF3B1194B1B68FF
:1058B000A3420FD0184A1360ABB100220120194651
:1058C000DB68A3420AD00246002BF8D1124B00221B
:1058D0001A6008E0E2680F4B1A6004E00AB10E4B50
:1058E0001960E368CB600023E36021460220FEF7E5
:1058F000DDFD0A4B6B61044B1A68EA601D60FEF720
:10590000D9F8284638BD00BF003F00200021010023
:1059100000ED00E0FC3E00200C3F0020B1560000EE
:1059200070B50346846A818D026B0819801AB3F83A
:1059300036E0BEF5866F94BFA0EB0E0CA0F5866C2A
:10594000BCF1000F01DBD98570BDA11A002902DD71
:105950000020D885F8E7121BB2F5803F1DD3104D0B
:105960006E20104E4FF0604402E015F8010F98B120
:10597000D6F8FC1011F0807FF7D0D4F8801E11F01B
:10598000010FF2D0D4F8001E11F0010FEDD0216804
:105990000029FCD02070E8E700BEDA850020D3E7BC
:1059A0002421010000ED00E070B50546037E012BC7
:1059B0000BD0AB8DC3F57F43FF3399423EDD2C4CBA
:1059C00074222C484FF0604C21E02B4C6422294E6D
:1059D0004FF0604002E014F8012F9AB1D6F8FC3085
:1059E00013F0807FF7D0D0F8803E13F0010FF2D093
:1059F000D0F8003E13F0010FEDD00368002BFCD06F
:105A00000270E8E700BED4E714F8012FAAB1D0F87D
:105A1000FC3013F0807FF7D0DCF8803E13F0010FEC
:105A2000F2D0DCF8003E13F0010FEDD0DCF80030CE
:105A3000002BFBD08CF80020E6E700BEAB8D1944AC
:105A400089B2B1F5066F92BFA9854FF40663AB85A5
:105A50002846FFF765FFB0F5067F00DA70BDAB7F23
:105A600043F00203AB77284603F0F0FBF6E700BFF4
:105A70006821010000ED00E04021010050B110B5A7
:105A80000446406808B1FEF789FF21460420FEF76E
:105A90000DFD10BD704710B5044628B1204624689E
:105AA000FFF7ECFF002CF9D110BD38B504460420F7
:105AB000FEF7A0FC054650B120686168A268E36863
:105AC00028606960AA60EB606868FFF77AFA284688
:105AD00038BD016170470000037E012B02D0C0F881
