:0200000460009A
:100000000000012099020000090300000B0300001A
:100010000D0300000F0300001103000000000000AA
:1000200000000000000000000000000013030000BA
:100030001503000000000000170300001903000072
:100040001B030000110800001F0300002103000033
:1000500023030000250300002703000029030000FC
:100060002B0300002D030000310700005D07000096
:10007000330300003503000037030000390300009C
:100080003B0300003D0300003F030000410300006C
:10009000010B000045030000470300004903000076
:1000A0004B03000000000000000000000000000002
:1000B0000000000000000000000000002D0B000008
:1000C0004F030000510300005303000055030000DC
:1000D00057030000590300005B0300005D030000AC
:1000E0005F0300006103000063030000650300007C
:1000F00067030000690300006B0300006D0300004C
:100100006F0300007103000073030000750300001B
:1001100077030000790300007B0300007D030000EB
:100120007F030000810300008303000085030000BB
:1001300087030000890300008B0300008D0300008B
:100140008F0300009103000093030000950300005B
:1001500097030000990300009B0300009D0300002B
:100160009F030000A1030000A3030000A5030000FB
:10017000A7030000A9030000AB030000AD030000CB
:10018000AF030000B1030000B3030000B50300009B
:10019000B7030000B9030000BB030000BD0300006B
:1001A000BF030000C1030000C3030000C50300003B
:1001B000C7030000C9030000CB030000CD0300000B
:1001C000CF030000D1030000D3030000D5030000DB
:1001D000D7030000D9030000DB030000DD030000AB
:1001E000DF030000E1030000E3030000E50300007B
:1001F000E7030000E9030000EB030000ED0300004B
:10020000EF030000F1030000F3030000F50300001A
:10021000F7030000F9030000FB030000FD030000EA
:10022000FF030000010400000304000005040000B7
:1002300007040000090400000B0400000D04000086
:100240000F04000011040000130400001504000056
:1002500017040000190400001B0400001D04000026
:100260001F040000210400002304000025040000F6
:1002700027040000290400002B0400002D040000C6
:100280002F04000031040000330400003504000096
:100290003704000039040000684880476848002897
:1002A0000BD168486849694A884206D091421CBF10
:1002B00050F8043B41F8043BF8D165486549664A6B
:1002C000884206D091421CBF50F8043B41F8043BE1
:1002D000F8D14FF000006149614A914218BF41F8DE
:1002E000040BFAD100000000000000000000000034
:1002F000DFF870010FF2030E00474FF000004FF0DF
:100300000001DFF864F1FEE7FEE7FEE7FEE7FEE747
:10031000FEE7FEE7FEE7FEE7FEE7FEE7FEE7FEE7B5
:10032000FEE7FEE7FEE7FEE7FEE7FEE7FEE7FEE7A5
:10033000FEE7FEE7FEE7FEE7FEE7FEE7FEE7FEE795
:10034000FEE7FEE7FEE7FEE7FEE7FEE7FEE7FEE785
:10035000FEE7FEE7FEE7FEE7FEE7FEE7FEE7FEE775
:10036000FEE7FEE7FEE7FEE7FEE7FEE7FEE7FEE765
:10037000FEE7FEE7FEE7FEE7FEE7FEE7FEE7FEE755
:10038000FEE7FEE7FEE7FEE7FEE7FEE7FEE7FEE745
:10039000FEE7FEE7FEE7FEE7FEE7FEE7FEE7FEE735
:1003A000FEE7FEE7FEE7FEE7FEE7FEE7FEE7FEE725
:1003B000FEE7FEE7FEE7FEE7FEE7FEE7FEE7FEE715
:1003C000FEE7FEE7FEE7FEE7FEE7FEE7FEE7FEE705
:1003D000FEE7FEE7FEE7FEE7FEE7FEE7FEE7FEE7F5
:1003E000FEE7FEE7FEE7FEE7FEE7FEE7FEE7FEE7E5
:1003F000FEE7FEE7FEE7FEE7FEE7FEE7FEE7FEE7D5
:10040000FEE7FEE7FEE7FEE7FEE7FEE7FEE7FEE7C4
:10041000FEE7FEE7FEE7FEE7FEE7FEE7FEE7FEE7B4
:10042000FEE7FEE7FEE7FEE7FEE7FEE7FEE7FEE7A4
:10043000FEE7FEE7FEE7FEE7FEE7000069080000D2
:10044000010000006C0400606C040000E41E000069
:10045000E41E0060000000208000002080000020DA
:0C04600010010020ED0B000075090000E9
:10046C0010B5054C237833B9044B13B10448AFF3E2
:10047C0000800123237010BD8000002000000000CC
:10048C00C41E000008B5034B1BB103490348AFF36E
:10049C00008008BD0000000084000020C41E000085
:1004AC0003681B7A03F00F030C2B1DD8DFE803F055
:1004BC00071C0D1C121C171C1C1C1C1C1200436A54
:1004CC0003B900BE436A83B11847036A03B900BE7F
:1004DC00036AF8E7C36903B900BEC369F3E783692C
:1004EC0003B900BE8369EEE700BE70471A4BF0B546
:1004FC00984203D0194A904200D000BEC26802B99B
:10050C0000BE026902B900BE984202D0134B984259
:10051C0012D1C56885B1016971B10668837A327DE3
:10052C0013438372930608D44369994204D1002380
:10053C0042680361C2F88430F0BD43690024CB1AD1
:10054C00102B28BF10239C424269EDD0AF5C0132C6
:10055C00377001344261F6E7D4000020AC00002073
:10056C00F8B5354F0446B8420D46164603D0334B0A
:10057C00984200D000BE05B900BE00F071F9BC4233
:10058C0041D14FF080404FF08443C4E900030A236B
:10059C004FF480602A4923810A6B2A4B42F0800277
:1005AC001B680A63284AC2F880010A6B22F0800299
:1005BC000A630021226811714DB1B3FBF5F10B09EF
:1005CC000A0748BF0133B3F5803F32D300BE012385
:1005DC0001216268180AC2F89C112168DBB208710B
:1005EC000B700E200023C2F89C310E730872C2F8F7
:1005FC001032164AC4E903336361E3612262A361DA
:10060C006362A372F8BD1249124B4FF40060C4E947
:10061C0000130B230A4923810A6B0F4B42F480729F
:10062C001B680A63084AC2F880010A6B22F48072C4
:10063C00BEE79BB2CCE700BFD4000020AC0000208A
:10064C00002004E01000002000E100E0F9040000AC
:10065C00000001400000204214000020154BF0B5B2
:10066C00984203D0144CA04200D000BE01B900BE89
:10067C0002B900BE984202D00F4B984218D1B9B1C2
:10068C00B2B100250668837A347D2343A406FBD5DA
:10069C000F2A837294BF134610234C19E71814F8D1
:1006AC0001CBBC4286F800C0F9D1D21A1D44EAD164
:1006BC00F0BD00BFD4000020AC0000200346104663
:1006CC00164A70B5934203D0154CA34200D000BE1D
:1006DC0001B900BE00B900BE934202D0104A934249
:1006EC0018D1B9B150B11A689C7A127DD5B2224397
:1006FC009A720022EC070FD5824200D170BD1C68A3
:10070C0024788C541C689E7A247D0132E5B23443E3
:10071C009C72EFE70020F1E71046EFE7D4000020D1
:10072C00AC000020684620F007018D4601B5064854
:10073C00FFF7B6FEBDE801404FF48062034B8546DF
:10074C00C3F88021704700BFD400002000E100E016
:10075C00684620F007018D4601B50648FFF7A0FE5C
:10076C00BDE801404FF40062034B8546C3F880217D
:10077C00704700BFAC00002000E100E04FF0FF30FC
:10078C0070474FF4005300204B60704701207047B6
:10079C00002070470020704770B50A4E1C46336825
:1007AC0015463BB903224FF461410748FFF7D8FEC9
:1007BC0001233360224629460348FFF74FFF2046AA
:1007CC0070BD00BF9C000020D400002008B50A4B6F
:1007DC000246196809B9094919601868EFF30881CC
:1007EC0002448A4206D9192301210020044AFFF74A
:1007FC00D3FFFEE71A6008BDA00000201001002006
:10080C00CC1B0000684620F007018D46104B01B54B
:10081C001A6D42F4E0221A65DA6C22F47C1242F46E
:10082C007012DA641A6D22F0706242F080721A65EE
:10083C006422596B01F003010329F9D1013AF8D173
:10084C00BDE80140034B044A8546DA60704700BF9F
:10085C00002004E000ED00E00400FA057047000001
:10086C007FB5304B04AC0FCB04E90F0021462E4B67
:10087C002E4D9A6C02F00C02224452F8104C9A6CD9
:10088C00C2F3011201EB820252F8100C9A6CC2F303
:10089C00811201EB820252F8101CDA6CDB6CC2F391
:1008AC0004229B04224B02F101021B6848BF520038
:1008BC0023F07043AB421AD11E4B1B680BB900BE20
:1008CC001D4BB3FBF4F4B3FBF0F0B3FBF1F1B3FB52
:1008DC00F2F21A4D2B601A4D2C601A4C20601A48FB
:1008EC0001601A490A601A4A136004B070BD194BB2
:1008FC001D68A3F19D53A3F59E13A3F2DB439D4208
:10090C00DDD1154B154E1D6825F07F43B342D6D96A
:10091C0015F47E0F01D1124BCFE7B3F5403FCED289
:10092C00104BCAE7E81B0000002004E0CF11A10522
:10093C00300208602CEF016040787D01000000203F
:10094C001000002014000020080000200C000020E3
:10095C00040000201C080860400808600003010027
:10096C002C160860AC1E0860F7B503224FF46141E9
:10097C004C48FFF7F5FD4C4800F0E4F94FF000430C
:10098C0003224A484FF480150360494B494C1A60C6
:10099C00FF22236848491A60484AC0F88050136BFC
:1009AC00404F23F0400313630022454B4A65C3F8C4
:1009BC008021C3F88821C3F8842101220A61C0F880
:1009CC0080514FF420003F4D3F4E8860C3F880218A
:1009DC00012238460DF10701FFF770FE10F0FF0FF2
:1009EC00EE60F5D09DF80710312907D1374800F09B
:1009FC00A9F90122324BC3F88021E9E7322905D14C
:100A0C00334800F09FF900222D4BF4E733290BD12A
:100A1C00304800F097F90122294BC3F888214FF494
:100A2C008012224B1A60D3E734290CD12A4800F0EB
:100A3C0089F90022224BC3F888214FF480121B4BFA
:100A4C00C3F88020C4E7352908D1244800F07AF98E
:100A5C0042F20C0310212268D150B9E7362907D194
:100A6C001F4800F06FF942F20C0320212268F3E7D3
:100A7C00372907D11B4800F065F942F20C033021ED
:100A8C002268E9E7772908D1174800F05BF922685A
:100A9C00164913684B401360FBE7154800F0CCF87F
:100AAC0096E700BFD4000020F81B000000E100E036
:100ABC00201005401800002000500040002004E0E9
:100ACC0000000A420060004042DE15AC051C00002C
:100ADC001C1C0000321C0000481C00005F1C0000A5
:100AEC00871C0000AF1C0000E11C00005AA55AA591
:100AFC00051D0000074B08491B6803F58142116076
:100B0C001A6882F0FF021A600122044B1A61BFF3CB
:100B1C004F8F704718000020FFFF1F00005000404F
:100B2C00234B10B51C68E2070ED5224800F084F860
:100B3C0042F20C020121204B24F001041B68995055
:100B4C001A6882F0AA021A60A30712D51B4800F09B
:100B5C0073F842F20C020221174B24F002041B68BA
:100B6C0099501A6882F055021A60042C10D114485E
:100B7C0002E0032CF9D1134800F05EF84FF0FF327D
:100B8C00114B1A604FF00042104BC3F8802110BD7E
:100B9C00052C01D10E48EFE7062C01D10D48EBE7EF
:100BAC00072C01D10C48E7E7082CE7D10B48E3E709
:100BBC002C1005401A1D000018000020411D0000DB
:100BCC008E1D0000691D00008001054000E100E061
:100BDC00B71D0000E41D0000FB1D0000121E0000EC
:100BEC0070B500260C4D0D4C641BA410A64209D107
:100BFC0001F062F900260A4D0A4C641BA410A642AF
:100C0C0005D170BD55F8043B98470136EEE755F811
:100C1C00043B98470136F2E7DC1E0000DC1E0000A6
:100C2C00DC1E0000E01E000003460244934200D18B
:100C3C00704703F8011BF9E70FB40A4B13B51C6896
:100C4C0024B1A36913B9204600F05EFA05AB204627
:100C5C00049AA168019300F029FC02B0BDE8104091
:100C6C0004B070471C00002070B50E46054618B144
:100C7C0083690BB900F048FAAB69AC6813B9284624
:100C8C0000F042FA2C4B9C4220D16C68636EDB075F
:100C9C0005D4A389980502D4A06D00F0D3FAA389DA
:100CAC0019071DD52369DBB1013EA36816F8011F96
:100CBC00013BA36039BB002B38DA22460A212846B7
:100CCC0000F048F8013011D00A2511E01B4B9C4272
:100CDC0001D1AC68DAE71A4B9C4208BFEC68D5E747
:100CEC002146284600F088F80028DDD04FF0FF356B
:100CFC00636EDA0705D4A3899B0502D4A06D00F0BE
:100D0C00A2FA284670BD002B04DAA2699A4206DCCE
:100D1C000A2904D023685A1C22601970C5E72246A0
:100D2C00284600F017F80130BFD1DFE70A25236809
:100D3C005A1C22601D70DBE7501E0000701E000064
:100D4C00301E0000024B01461868FFF78DBF00BF34
:100D5C001C000020F8B50E461446054618B18369F0
:100D6C000BB900F0D1F9214B9C422BD16C68A369D3
:100D7C00A360A3891A072FD523696BB32369206855
:100D8C00F6B2C01A63693746834204DC2146284612
:100D9C0000F026F930BBA3680130013BA360236847
:100DAC005A1C22601E706369834204D0A389DB073E
:100DBC0006D50A2E04D12146284600F011F988B92F
:100DCC003846F8BD0A4B9C4201D1AC68CFE7094BC1
:100DDC009C4208BFEC68CAE72146284600F00CF894
:100DEC000028CBD04FF0FF37EAE700BF501E0000C1
:100DFC00701E0000301E0000324B70B51D68064698
:100E0C000C4625B1AB6913B9284600F07DF92E4B81
:100E1C009C420FD16C68A389B4F90C2019072CD40F
:100E2C00DD0611D40923336042F040034FF0FF304C
:100E3C00A3813EE0254B9C4201D1AC68EBE7244BEF
:100E4C009C4208BFEC68E6E7580712D5616B41B1CC
:100E5C0004F14403994202D0304600F059FA0023C1
:100E6C006363A38923F02403A381002363602369B4
:100E7C002360A38943F00803A38123694BB9A38999
:100E8C0003F42073B3F5007F03D02146304600F005
:100E9C00FFF9A089B4F90C2010F001030AD000234B
:100EAC00A36063695B42A361236943B910F08000BE
:100EBC00BAD170BD810758BF6369A360F4E7002005
:100ECC00F7E700BF1C000020501E0000701E000041
:100EDC00301E00008A892DE9F041054610070C46AA
:100EEC0058D44B68002B05DC0B6C002B02DC00206B
:100EFC00BDE8F081E66A002EF9D0002312F480528E
:100F0C002F682B6032D0606DA3895A0705D56368B2
:100F1C00C01A636B0BB1236CC01A00230246E66A3D
:100F2C002846216AB047431CA38906D129681D298C
:100F3C002CD82A4ACA40D60728D5002262602269DA
:100F4C00D904226004D5421C01D12B6803B9606519
:100F5C00616B2F600029CAD004F14403994202D07E
:100F6C00284600F0D5F900206063C1E7216A01230F
:100F7C002846B047411CC7D12B68002BC4D01D2B71
:100F8C0001D0162B01D12F60B1E7A38943F04003A8
:100F9C00A381ADE70F69002FA9D0930718BF0023D9
:100FAC000E6808BF4B69A6EB07080F608B60B8F1A1
:100FBC00000F9CDD43463A462846216AA66AB04794
:100FCC00002806DCA3894FF0FF3043F04003A381D7
:100FDC008EE70744A8EB0008E9E700BF01004020BA
:100FEC0038B50B6905460C4613B90025284638BDA3
:100FFC0018B183690BB900F087F8144B9C421BD1D4
:10100C006C68B4F90C30002BEFD0626ED00704D4AE
:10101C00990502D4A06D00F015F928462146FFF77A
:10102C0059FF636E0546DA07E0D4A3899B05DDD42E
:10103C00A06D00F008F9D9E7054B9C4201D1AC68D2
:10104C00DFE7044B9C4208BFEC68DAE7501E000057
:10105C00701E0000301E0000002310B50446C0E9CD
:10106C000033C0E90433836081814366C2818361AC
:10107C00194608225C30FFF7D7FD054B24626362EA
:10108C00044BA362044BE362044B236310BD00BF0B
:10109C00651A0000871A0000BF1A0000E31A00004E
:1010AC00014900F0AFB800BFED0F000070B5682526
:1010BC004A1E55430E4605F1740100F075F90446BD
:1010CC0040B10021C0E900160C30A06005F16802A7
:1010DC00FFF7AAFD204670BD014800F0B3B800BF71
:1010EC0004010020014800F0AEB800BF040100204C
:1010FC00014800F0A7B800BFFF000020014800F035
:10110C00A2B800BFFF00002010B50446FFF7F0FFA7
:10111C00A3691BB1BDE81040FFF7F0BFC4E912335F
:10112C002365134B134A1B68A262A34208BF012319
:10113C00204608BFA36100F01FF86060204600F055
:10114C001BF8A060204600F017F800220421E06094
:10115C006068FFF781FF01220921A068FFF77CFF7F
:10116C0002221221E068FFF777FF0123A361D1E788
:10117C002C1E0000AD100000F8B50746FFF7ACFFC1
:10118C001E4B1E68B36913B93046FFF7BDFF4836D6
:10119C00D6E90134013B03D533680BB33668F7E766
:1011AC00B4F90C50D5B9164B04F15800E3606566E0
:1011BC0000F047F8FFF796FF08222946C4E90155CD
:1011CC00C4E904552560A56104F15C00FFF72CFD12
:1011DC00C4E90D55C4E912552046F8BD6834D9E769
:1011EC0004213846FFF762FF044630600028D5D151
:1011FC00FFF778FF0C233B60EEE700BF2C1E0000CE
:10120C000100FFFF2DE9F84306468846002700F150
:10121C004804D4E90195B9F1010905D52468002CDD
:10122C00F7D13846BDE8F883AB89012B07D9B5F95E
:10123C000E30013303D029463046C047074368358A
:10124C00E9E770477047704770B50E46B1F90E105C
:10125C00144600291D4696B007DA00232B60B3898B
:10126C001A0610D44FF480630EE06A4600F048FC76
:10127C000028F2DB019A02F47042A2F500535A42A4
:10128C005A412A60EEE740230020236016B070BD5F
:10129C008B8973B59D0706460C4607D504F14703A9
:1012AC00236023610123636102B070BD6A4601AB08
:1012BC00FFF7CAFF00990546304600F075F848B9AB
:1012CC00B4F90C309A05EFD423F0030343F0020376
:1012DC00A381E3E70D4BB362A389206043F0800345
:1012EC00A381009B20616361019B5BB13046B4F923
:1012FC000E1000F017FC28B1A38923F0030343F070
:10130C000103A381A0890543A581CDE7AD100000A1
:10131C0038B50546002943D051F8043C0C1F002B6E
:10132C00B8BFE41800F02EFC1E4A1368104633B9FF
:10133C00636014602846BDE8384000F029BCA34225
:10134C000AD921686218934201BF1A685B68521867
:10135C00226063600460EDE71A465B680BB1A34240
:10136C00FAD911685018A0420BD1206801445018CA
:10137C0083421160DED118685B68014411605360D0
:10138C00D8E702D90C232B60D4E7206821188B42B4
:10139C0001BF19685B680918216063605460C9E774
:1013AC0038BD00BFA4000020F8B5CD1C25F0030506
:1013BC0008350C2D38BF0C25002D064601DBA94243
:1013CC0003D90C2333600020F8BD00F0DBFB21496E
:1013DC000A6814469CB9204F3B6823B92146304615
:1013EC0000F02AFB38602946304600F025FB431CF0
:1013FC0023D10C233046336000F0CAFBE3E72368AB
:10140C005B1B17D40B2B03D923601C44256004E011
:10141C006368A2420CBF0B605360304600F0B8FB0F
:10142C0004F10B00231D20F00700C21ACCD01B1AAC
:10143C00A350C9E722466468CCE7C41C24F003041B
:10144C00A042E3D0211A304600F0F6FA0130DDD18B
:10145C00CFE700BFA4000020A8000020936810B4C0
:10146C00013B002B936007DA9469A34201DB0A2944
:10147C0002D110BCFFF76EBC1368581C10601970B9
:10148C00084610BC7047F8B506460F461446D518EA
:10149C00AC4201D1002007E03A46304614F8011B5B
:1014AC00FFF7DCFF431CF3D1F8BD00002DE9F04F32
:1014BC000D461446984606469DB018B183690BB983
:1014CC00FFF722FE894B9D421BD175686B6ED907C5
:1014DC0005D4AB899A0502D4A86DFFF7B3FEAB898E
:1014EC001B0701D52B69EBB929463046FFF784FC65
:1014FC00C0B16B6EDC070ED54FF0FF301DB0BDE8F0
:10150C00F08F7B4B9D4201D1B568DFE7794B9D4253
:10151C0008BFF568DAE7AB899805EDD4A86DFFF73D
:10152C0092FEE9E70023099320238DF8293030231C
:10153C004FF00109CDF80C80DFF8BC818DF82A3012
:10154C0023469A4613F8012B0AB1252AF9D1BAEB96
:10155C00040B0BD05B46224629463046FFF793FF1F
:10156C00013000F0AA80099A5A4409929AF8003086
:10157C00002B00F0A28000234FF0FF32CDE90523B1
:10158C000AF1010A049307938DF853301A935446C9
:10159C00052214F8011B584800F0E6FA049AD8B951
:1015AC00D10644BF20238DF85330130744BF2B239F
:1015BC008DF853309AF800302A2B15D05446002061
:1015CC004FF00A0C079A214611F8013B303B092BCE
:1015DC004ED9B0B1079214E0A0EB080309FA03F35B
:1015EC001343A2460493D2E7039B191D1B68039176
:1015FC00002BBBBF5B4242F0020207930793B8BFBC
:10160C00049223782E2B0CD163782A2B35D1039B93
:10161C0002341A1D1B680392002BB8BF4FF0FF3326
:10162C000593DFF8E4A003225046217800F09CFAE1
:10163C0040B14023A0EB0A0003FA00F0049B0134F4
:10164C000343049314F8011B06222C488DF8281030
:10165C0000F08AFA00283FD0294B1BBB039B0733B1
:10166C0023F0070308330393099B3B44099367E773
:10167C000C4601200CFB0232A5E700234FF00A0CAC
:10168C00194601340593204610F8012B303A092AEB
:10169C0003D9002BC5D00591C3E7044601230CFBED
:1016AC000121F0E703AB00932A463046154B04A901
:1016BC00AFF300800746781CD6D16B6ED90705D4E2
:1016CC00AB899A0502D4A86DFFF7BDFDAB895B060B
:1016DC003FF512AF099811E703AB00932A46304649
:1016EC00084B04A900F082F8E4E700BF501E00008C
:1016FC00701E0000301E0000901E00009A1E00009C
:10170C000000000093140000961E00002DE9F04725
:10171C00164699468A680B6907469342B8BF13462A
:10172C00336091F843200C46DDF820800AB1013378
:10173C0033602368990642BF3368023333602568EF
:10174C0015F0060506D104F1190AE36832689B1AF4
:10175C00AB4228DC94F84320131E226818BF0123E7
:10176C0092062DD44946384604F14302C047013055
:10177C0020D02368E56803F00603042B18BF00256E
:10178C0032684FF00006A36808BFAD1A226908BF83
:10179C0025EAE5759342C4BF9B1AED181A34B5427D
:1017AC001AD1002008E00123524649463846C0476A
:1017BC00013003D14FF0FF30BDE8F0870135C4E7AD
:1017CC003020E11881F843005A1C94F8451022444B
:1017DC00023382F84310C5E70123224649463846B6
:1017EC00C0470130E6D00136D9E700002DE9FF47AC
:1017FC000C46277E9146782F80469A460C9904F128
:10180C00430207D8622F0AD8002F00F0D980582F36
:10181C0000F0A48004F1420684F842703AE0A7F18B
:10182C006303152BF6D801A050F823F09118000093
:10183C00A518000021180000211800002118000034
:10184C0021180000A5180000211800002118000024
:10185C002118000021180000B3190000D518000051
:10186C00951900002118000021180000D51900005E
:10187C0021180000D51800002118000021180000C4
:10188C009D1900000B6804F142061A1D1B680A60C2
:10189C0084F842300123A4E0256808682E0600F184
:1018AC0004030AD505680B60002D03DA2D236D4265
:1018BC0084F843300A235E4819E015F0400F0568A0
:1018CC000B6018BF2DB2EFE70B682568181D086078
:1018DC00280601D51D6802E06906FBD51D886F2F0F
:1018EC000CBF08230A235248002184F84310666871
:1018FC00002EA8BF2168A660A4BF21F004012160BE
:10190C000DB9002E4DD01646B5FBF3F103FB115764
:10191C00C75D06F8017D2F46BB420D46F4D9082B56
:10192C000BD12368DF0708D5236961689942DEBFB4
:10193C00302306F8013C06F1FF36921B22614B4620
:10194C0021464046CDF800A003AAFFF7DFFE013088
:10195C004CD14FF0FF3004B0BDE8F087344884F828
:10196C0045700E68236856F8045B1F060E6014D58C
:10197C00D90744BF43F0200323601DB9236823F02B
:10198C00200323601023AFE7236843F02003236078
:10199C007823284884F84530E3E75E0648BFADB2AB
:1019AC00E6E71646BBE70B6826681D1D60690D60EF
:1019BC0035061B6801D5186002E07106FBD518804E
:1019CC00002316462361BAE70B681A1D0A601E68CD
:1019DC0000213046626800F0C7F808B1801B6060D7
:1019EC0063682361002384F84330A8E732464946F4
:1019FC0040462369D0470130ABD023689B0713D4F2
:101A0C00E068039B9842B8BF1846A4E7012332460E
:101A1C0049464046D04701309BD00135E3680399D5
:101A2C005B1AAB42F2DCEBE7002504F11906F5E793
:101A3C00A11E0000B21E000038B50023054D04465F
:101A4C0008462B60FEF7C2FE431C02D12B6803B183
:101A5C00236038BD0801002010B50C46B1F90E10FA
:101A6C0000F09CF80028ABBF636DA3891B1823F40E
:101A7C008053ACBF6365A38110BD2DE9F0411F46B7
:101A8C008B890546DB050C46164605D5022300223C
:101A9C00B1F90E1000F056F8A389324623F48053A6
:101AAC00A38128463B46B4F90E10BDE8F041FEF781
:101ABC0073BE10B50C46B1F90E1000F043F8431C80
:101ACC00A38915BF606523F4805343F48053A3812D
:101ADC0018BFA38110BDB1F90E1000F001B80000C1
:101AEC0038B50023054D044608462B60FEF746FE2C
:101AFC00431C02D12B6803B1236038BD08010020C0
:101B0C0038B50023064D0446084611462B60FEF7F7
:101B1C0038FE431C02D12B6803B1236038BD00BFD3
:101B2C000801002038B50023054D044608462B60FB
:101B3C00FEF72CFE431C02D12B6803B1236038BD89
:101B4C000801002038B50446084611460022054D10
:101B5C002A601A46FEF71CFE431C02D12B6803B107
:101B6C00236038BD08010020034610B5C9B20244F9
:101B7C009342184601D1002003E0047801338C42D3
:101B8C00F6D110BD0148FFF75DBB00BF000100207E
:101B9C000148FFF758BB00BF0001002038B50446D0
:101BAC00084611460022054D2A601A46FEF7F2FD42
:101BBC00431C02D12B6803B1236038BD08010020FF
:101BCC004865617020616E6420737461636B20637F
:101BDC006F6C6C6973696F6E0A0000000100000085
:101BEC00020000000400000001000000626C696E3D
:101BFC006B792074696D650D00676F7420612031FD
:101C0C00202D2073746172742074696D65720D00DF
:101C1C00676F7420612032202D2073746F702074D4
:101C2C00696D65720D00676F7420612033202D2063
:101C3C00656E61626C65206972710D00676F74204E
:101C4C00612034202D2064697361626C6520697297
:101C5C00710D00676F7420612035202D2067656E33
:101C6C006572617465204D616A6F72204672616D98
:101C7C006520495251206972710D00676F742061A3
:101C8C002036202D2067656E6572617465204D6964
:101C9C006E6F72204672616D6520495251206972D7
:101CAC00710D00676F7420612037202D2067656EE1
:101CBC006572617465204D616A6F7220616E64207B
:101CCC004D696E6F72204672616D652049525120CC
:101CDC006972710D00676F7420612077202D20745C
:101CEC00726967676572207761746368646F6720D7
:101CFC0074696D656F75740D006B65792072656321
:101D0C006569766564202D202563200D0A005746F1
:101D1C00463933204D616A6F72204672616D6520C1
:101D2C00496E74657272757074204F63637572724C
:101D3C0065640A0D005746463933204D696E6F7243
:101D4C00204672616D6520496E746572727570748F
:101D5C00204F63637572726564200A0D0057464606
:101D6C003933204649463020456D70747920496ED0
:101D7C0074657272757074204F6363757265640A52
:101D8C000D00504C41534D4943204649464F204588
:101D9C004D50545920496E74657272757074204F91
:101DAC0063637572726564200A0D00504C41534D8B
:101DBC004943204649464F2048616C662046756C65
:101DCC006C20496E74657272757074204F63637504
:101DDC0072726564200A0D004952512036204F63FF
:101DEC006375726564202D205754463F0A0D0049D7
:101DFC0052512037204F636375726564202D205734
:101E0C0054463F0A0D004952512038204F636375E8
:101E1C00726564202D205754463F0A0D00000000C7
:101E2C002000002000000000000000000000000066
:101E3C000000000000000000000000000000000096
:101E4C000000000000000000000000000000000086
:101E5C000000000000000000000000000000000076
:101E6C000000000000000000000000000000000066
:101E7C000000000000000000000000000000000056
:101E8C0000000000232D302B2000686C4C00656690
:101E9C0067454647003031323334353637383941AF
:101EAC0042434445460030313233343536373839C5
:101EBC006162636465660000F8B500BFF8BC08BCDD
:101ECC009E467047F8B500BFF8BC08BC9E467047EC
:081EDC00910400006D040000F8
:101EE40040787D0140787D01105E5F00105E5F00E8
:101EF400105E5F00105E5F000000054020000020BF
:101F040000000000501E0000701E0000301E000083
:101F140000000000000000000000000000000000BD
:101F240000000000000000000000000000000000AD
:101F3400000000000000000000000000000000009D
:101F4400000000000000000000000000000000008D
:101F5400000000000000000000000000000000007D
:04000003000002995E
:00000001FF
