:0200000460009A
:100000000000012099020000090300000B0300001A
:100010000D0300000F0300001103000000000000AA
:1000200000000000000000000000000013030000BA
:100030001503000000000000170300001903000072
:100040001B0300006D0B00001F03000021030000D4
:1000500023030000250300002703000029030000FC
:100060002B0300002D030000ED090000150A00001D
:10007000330300003503000037030000390300009C
:100080003B0300003D0300003F030000410300006C
:10009000430300004503000047030000490300003C
:1000A0004B03000000000000000000000000000002
:1000B000000000000000000000000000F90E000039
:1000C0004F030000510300005303000055030000DC
:1000D00057030000590300005B0300005D030000AC
:1000E0005F0300006103000063030000650300007C
:1000F00067030000690300006B0300006D0300004C
:100100006F0300007103000073030000750300001B
:1001100077030000790300007B0300007D030000EB
:100120007F030000810300008303000085030000BB
:1001300087030000890300008B0300008D0300008B
:100140008F0300009103000093030000950300005B
:1001500097030000990300009B0300009D0300002B
:100160009F030000A1030000A3030000A5030000FB
:10017000A7030000A9030000AB030000AD030000CB
:10018000AF030000B1030000B3030000B50300009B
:10019000B7030000B9030000BB030000BD0300006B
:1001A000BF030000C1030000C3030000C50300003B
:1001B000C7030000C9030000CB030000CD0300000B
:1001C000CF030000D1030000D3030000D5030000DB
:1001D000D7030000D9030000DB030000DD030000AB
:1001E000DF030000E1030000E3030000E50300007B
:1001F000E7030000E9030000EB030000ED0300004B
:10020000EF030000F1030000F3030000F50300001A
:10021000F7030000F9030000FB030000FD030000EA
:10022000FF030000010400000304000005040000B7
:1002300007040000090400000B0400000D04000086
:100240000F04000011040000130400001504000056
:1002500017040000190400001B0400001D04000026
:100260001F040000210400002304000025040000F6
:1002700027040000290400002B0400002D040000C6
:100280002F04000031040000330400003504000096
:100290003704000039040000684880476848002897
:1002A0000BD168486849694A884206D091421CBF10
:1002B00050F8043B41F8043BF8D165486549664A6B
:1002C000884206D091421CBF50F8043B41F8043BE1
:1002D000F8D14FF000006149614A914218BF41F8DE
:1002E000040BFAD100000000000000000000000034
:1002F000DFF870010FF2030E00474FF000004FF0DF
:100300000001DFF864F1FEE7FEE7FEE7FEE7FEE747
:10031000FEE7FEE7FEE7FEE7FEE7FEE7FEE7FEE7B5
:10032000FEE7FEE7FEE7FEE7FEE7FEE7FEE7FEE7A5
:10033000FEE7FEE7FEE7FEE7FEE7FEE7FEE7FEE795
:10034000FEE7FEE7FEE7FEE7FEE7FEE7FEE7FEE785
:10035000FEE7FEE7FEE7FEE7FEE7FEE7FEE7FEE775
:10036000FEE7FEE7FEE7FEE7FEE7FEE7FEE7FEE765
:10037000FEE7FEE7FEE7FEE7FEE7FEE7FEE7FEE755
:10038000FEE7FEE7FEE7FEE7FEE7FEE7FEE7FEE745
:10039000FEE7FEE7FEE7FEE7FEE7FEE7FEE7FEE735
:1003A000FEE7FEE7FEE7FEE7FEE7FEE7FEE7FEE725
:1003B000FEE7FEE7FEE7FEE7FEE7FEE7FEE7FEE715
:1003C000FEE7FEE7FEE7FEE7FEE7FEE7FEE7FEE705
:1003D000FEE7FEE7FEE7FEE7FEE7FEE7FEE7FEE7F5
:1003E000FEE7FEE7FEE7FEE7FEE7FEE7FEE7FEE7E5
:1003F000FEE7FEE7FEE7FEE7FEE7FEE7FEE7FEE7D5
:10040000FEE7FEE7FEE7FEE7FEE7FEE7FEE7FEE7C4
:10041000FEE7FEE7FEE7FEE7FEE7FEE7FEE7FEE7B4
:10042000FEE7FEE7FEE7FEE7FEE7FEE7FEE7FEE7A4
:10043000FEE7FEE7FEE7FEE7FEE70000ED0B00004B
:10044000010000006C0400606C040000B420000097
:10045000B420006000000020800000208000002008
:0C04600010010020610F0000450E00009C
:10046C0010B5054C237833B9044B13B10448AFF3E2
:10047C0000800123237010BD8000002000000000CC
:10048C009420000008B5034B1BB103490348AFF39C
:10049C00008008BD000000008400002094200000B3
:1004AC0080B483B000AF0346FB80FB8803F01F03CE
:1004BC00012202FA03F1064AB7F906305B096033F0
:1004CC0042F8231000BF0C37BD4680BC704700BFFC
:1004DC0000E100E080B588B000AFF860B960134669
:1004EC00FB710123FB830023BB61FB68564A9342DB
:1004FC0004D0FB68554A934200D000BEBB68002B69
:10050C0000D100BE00F072FBFB684F4A93421DD134
:10051C00FB684FF080421A60FB684FF084425A60CF
:10052C00FB680A221A814A4B1B68BB61494B1B6B47
:10053C00484A43F0800313630A20FFF7B1FF454B91
:10054C001B6B444A23F0800313631AE0FB68424A96
:10055C001A60FB68414A5A60FB680B221A81404BB7
:10056C001B68BB613B4B1B6B3A4A43F480731363B0
:10057C000B20FFF795FF374B1B6B364A23F4807328
:10058C001363FB681B6800221A71BB68002B1CD01C
:10059C00BA69BB68B2FBF3F37B617B6903F00803B8
:1005AC00002B04D07B691B0901337B6102E07B6962
:1005BC001B097B617B69B3F5803F00D300BE7B696F
:1005CC00B3F5803F01D27B69FB83FB685B6801223A
:1005DC00C3F89C21FB8B1B0A9AB2FB681B68D2B236
:1005EC001A71FB681B68FA8BD2B21A70FB685B68D5
:1005FC000022C3F89C21FB681B68FA791A73FB680C
:10060C001B680E221A72FB685B680022C3F810226A
:10061C00FB6800221A61FB680022DA60FB6800228A
:10062C005A61FB680022DA61FB680E4A1A62FB68A9
:10063C0000229A61FB6800225A62FB6800229A72BF
:10064C0000BF2037BD4680BDD4000020AC00002088
:10065C0008000020002004E00000014000002042BF
:10066C000C0000200509000080B489B000AFF860D0
:10067C00B9607A600023FB61FB682A4A934204D07C
:10068C00FB68294A934200D000BEBB68002B00D106
:10069C0000BE7B68002B00D100BEFB68214A934250
:1006AC0003D0FB68204A934236D1BB68002B33D071
:1006BC007B68002B30D0FB681B681B7DFB74FB68D0
:1006CC009A7AFB7C1343DAB2FB689A72FB7C03F0D8
:1006DC002003002B1DD010237B617B680F2B01D8CE
:1006EC007B687B610023BB610BE0FB695A1CFA61E0
:1006FC00BA681A44FB681B6812781A70BB6901331C
:10070C00BB61BA697B699A42EFD37A68BB69D31A29
:10071C007B607B68002BCED100BF2437BD4680BCEC
:10072C00704700BFD4000020AC00002080B487B01C
:10073C0000AFF860B9607A6000237B610023FB7422
:10074C00FB68274A934204D0FB68264A934200D0A8
:10075C0000BEBB68002B00D100BE7B68002B00D113
:10076C0000BEFB681E4A934203D0FB681D4A9342AD
:10077C0030D1BB68002B2DD07B68002B2AD0FB68B6
:10078C001B681B7DFB74FB689A7AFB7C1343DAB203
:10079C00FB689A7215E0FB681A68B9687B690B44B0
:1007AC001278D2B21A707B6901337B61FB681B68CB
:1007BC001B7DFB74FB689A7AFB7C1343DAB2FB68F3
:1007CC009A72FB7C03F00103002B03D07A697B68DF
:1007DC009A42E0D37B6918461C37BD4680BC7047F3
:1007EC00D4000020AC00002080B584B000AF78604D
:1007FC007B683F4A934204D07B683E4A934200D0C8
:10080C0000BE7B683A4A934203D07B68394A9342D4
:10081C0060D17B681B681B7ADBB203F00F03FB73A0
:10082C00FB7B0C2B54D801A252F823F06D0800006E
:10083C00DD08000089080000DD080000A5080000A4
:10084C00DD080000C1080000DD080000DD08000024
:10085C00DD080000DD080000DD080000A508000030
:10086C007B685B6A002B00D100BE7B685B6A002B47
:10087C0032D07B685B6A786898472DE07B681B6A8E
:10088C00002B00D100BE7B681B6A002B26D07B6836
:10089C001B6A7868984721E07B68DB69002B00D1E4
:1008AC0000BE7B68DB69002B1AD07B68DB6978683B
:1008BC00984715E07B689B69002B00D100BE7B68D4
:1008CC009B69002B0ED07B689B697868984709E080
:1008DC0000BE08E000BF06E000BF04E000BF02E07D
:1008EC0000BF00E000BF00BF1037BD4680BD00BF99
:1008FC00D4000020AC00002080B487B000AF78603A
:10090C007B68354A934204D07B68344A934200D0CA
:10091C0000BE7B68DB68002B00D100BE7B681B69C6
:10092C00002B00D100BE7B682B4A934203D07B681E
:10093C002A4A93424AD17B68DB68002B46D07B68FD
:10094C001B69002B42D07B681B681B7DFB737B688B
:10095C009A7AFB7B1343DAB27B689A72FB7B03F0C7
:10096C002003002B24D010233B617B681A697B6821
:10097C005B69D31ABB60BB680F2B01D8BB683B61AA
:10098C0000237B6110E07B68DA687B685B691A4442
:10099C007B681B6812781A707B685B695A1C7B68D1
:1009AC005A617B6901337B617A693B699A42EAD36C
:1009BC007B685A697B681B699A4207D17B68002265
:1009CC001A617B685B680022C3F8842000BF1C3767
:1009DC00BD4680BC704700BFD4000020AC00002096
:1009EC00684620F007018D4689B500AF0548FFF732
:1009FC00FBFE0A20FFF754FD00BFBD46BDE8894051
:100A0C0085467047D4000020684620F007018D46CB
:100A1C0089B500AF0548FFF7E7FE0B20FFF740FD57
:100A2C0000BFBD46BDE8894085467047AC0000203C
:100A3C0080B483B000AF78604FF0FF3318460C37AA
:100A4C00BD4680BC704780B483B000AF7860FEE7D1
:100A5C0080B483B000AF786039603B684FF40052CB
:100A6C005A60002318460C37BD4680BC704780B4D2
:100A7C0083B000AF7860012318460C37BD4680BCAC
:100A8C00704780B485B000AFF860B9607A6000231D
:100A9C0018461437BD4680BC704780B485B000AF93
:100AAC00F860B9607A60002318461437BD4680BCE4
:100ABC007047000080B584B000AFF860B9607A6010
:100ACC003B600C4B1B68002B08D103224FF4614197
:100ADC000948FFF7FFFC074B01221A603B681A46D6
:100AEC0079680548FFF7C0FD3B6818461037BD46CE
:100AFC0080BD00BF9C000020D400002080B584B0D5
:100B0C0000AF7860134B1B68002B02D1114B124ABB
:100B1C001A60104B1B68FB60EFF30883BB600D4B36
:100B2C001A687B681344BA689A4208D219230B4A94
:100B3C0001210020FFF7BEFF0120FFF784FF054BCA
:100B4C001A687B681344034A1360FB681846103715
:100B5C00BD4680BDA000002010010020401F0000F9
:100B6C00684620F007018D4681B482B000AF194B66
:100B7C001B6D184A43F4E0231365164BDB6C23F40E
:100B8C007C13144A43F47013D364124B1B6D23F083
:100B9C007063104A43F08073136564237B600D4BC4
:100BAC005B6B03F003033B603B68032B03D17B6857
:100BBC00013B7B6001E064237B607B68002BEED102
:100BCC00054B064ADA6000BF0837BD4681BC854636
:100BDC00704700BF002004E000ED00E00400FA05BF
:100BEC0080B400AF00BFBD4680BC704790B58BB0E1
:100BFC0000AF334B3C460FCB84E80F00314B9B6C62
:100C0C009B0803F003039B0007F12802134453F8DD
:100C1C00283C3B622B4B9B6C1B0903F003039B0092
:100C2C0007F12802134453F8283CFB61254B9B6CBD
:100C3C009B0903F003039B0007F12802134453F8AC
:100C4C00283CBB611F4BDB6C1B0A03F01F037B6151
:100C5C001C4BDB6C5B0B03F001033B617B690133C9
:100C6C007B623B69002B02D07B6A5B007B6200F0ED
:100C7C0037F80346144A1360134B1A683B6AB2FBED
:100C8C00F3F3124A1360104B1A68FB69B2FBF3F3CF
:100C9C000F4A13600C4B1A68BB69B2FBF3F30D4A95
:100CAC001360094B1A687B6AB2FBF3F30A4A1360B0
:100CBC00054B1B68094A136000BF2C37BD4690BD1D
:100CCC005C1F0000002004E004000020080000204D
:100CDC000C00002010000020140000200000002058
:100CEC0080B48BB000AF00237B62234B3B62234B61
:100CFC00FB61FB691B6823F07043BB61BB69204A35
:100D0C00934205D11F4B7B607B681B687B6227E09D
:100D1C003B6A1B681C4A934222D11C4B7B617B694A
:100D2C001B683B613B6923F07F433B613B69184A7D
:100D3C00934215D93B69B3F5003F05D2154BBB6007
:100D4C00BB681B687B620BE03B69B3F5403F05D287
:100D5C00114BFB60FB681B687B6201E000237B622C
:100D6C007B6A002B02D100BE0C4B7B627B6A18465F
:100D7C002C37BD4680BC70471C08086030020860E8
:100D8C00CF11A1052CEF01604143544C4008086081
:100D9C00000301002C160860AC1E086040787D0131
:100DAC0080B483B000AF0346FB80FB8803F01F03C5
:100DBC00012202FA03F1054AB7F906305B0942F841
:100DCC00231000BF0C37BD4680BC704700E100E02B
:100DDC0080B483B000AF0346FB80FB8803F01F0395
:100DEC00012202FA03F1064AB7F906305B092033F7
:100DFC0042F8231000BF0C37BD4680BC704700BFC3
:100E0C0000E100E080B483B000AF0346FB80FB88B8
:100E1C0003F01F03012202FA03F1064AB7F9063068
:100E2C005B09603342F8231000BF0C37BD4680BC11
:100E3C00704700BF00E100E080B582B000AF002336
:100E4C00FB7103224FF461412048FFF743FB20481C
:100E5C0000F032F91F4B1B68FF221A60BB1D0122E8
:100E6C0019461A48FFF762FC0346FB71FB79002B0D
:100E7C00F4D00023FB71BB79312B11D1164800F053
:100E8C001BF91F20FFF7BEFF1F20FFF789FF114B37
:100E9C001B68203304221A60104B04221A60DDE711
:100EAC00BB79322B0CD10E4800F006F90D4B042205
:100EBC001A601F20FFF78CFF1F20FFF7A3FFCDE761
:100ECC00BB791946084800F071F8C7E7D400002038
:100EDC006C1F0000180000207C1F00002010054033
:100EEC00981F000024100540B41F000080B582B08C
:100EFC0000AF144B1B681A68124B1B6882F00A0275
:100F0C001A60104B1B68203304221A600E4B1B68AE
:100F1C007B607B6803F00403002B07D00B4800F0C8
:100F2C0045F87B6823F004037B6002E0084800F07E
:100F3C003DF800237B601F20FFF764FF00BF0837DC
:100F4C00BD4680BD180000202C100540CC1F0000B1
:100F5C00F41F000070B500260C4D0D4C641BA41042
:100F6C00A64209D101F090F800260A4D0A4C641BE8
:100F7C00A410A64205D170BD55F8043B9847013624
:100F8C00EEE755F8043B98470136F2E7AC20000039
:100F9C00AC200000AC200000B0200000034602444E
:100FAC00934200D1704703F8011BF9E70FB40A4BC9
:100FBC0013B51C6824B1A36913B9204600F05EFA7E
:100FCC0005AB2046049AA168019300F029FC02B0FD
:100FDC00BDE8104004B070471C00002070B50E46F0
:100FEC00054618B183690BB900F048FAAB69AC68D7
:100FFC0013B9284600F042FA2C4B9C4220D16C6865
:10100C00636EDB0705D4A389980502D4A06D00F0AC
:10101C00D3FAA38919071DD52369DBB1013EA36857
:10102C0016F8011F013BA36039BB002B38DA2246AE
:10103C000A21284600F048F8013011D00A2511E0A9
:10104C001B4B9C4201D1AC68DAE71A4B9C4208BF9F
:10105C00EC68D5E72146284600F088F80028DDD05A
:10106C004FF0FF35636EDA0705D4A3899B0502D4D4
:10107C00A06D00F0A2FA284670BD002B04DAA2691C
:10108C009A4206DC0A2904D023685A1C2260197083
:10109C00C5E72246284600F017F80130BFD1DFE73C
:1010AC000A2523685A1C22601D70DBE720200000F3
:1010BC004020000000200000024B01461868FFF79A
:1010CC008DBF00BF1C000020F8B50E461446054627
:1010DC0018B183690BB900F0D1F9214B9C422BD18B
:1010EC006C68A369A360A3891A072FD523696BB316
:1010FC0023692068F6B2C01A63693746834204DC60
:10110C002146284600F026F930BBA3680130013B8C
:10111C00A36023685A1C22601E706369834204D04A
:10112C00A389DB0706D50A2E04D12146284600F0F8
:10113C0011F988B93846F8BD0A4B9C4201D1AC680C
:10114C00CFE7094B9C4208BFEC68CAE7214628460A
:10115C0000F00CF80028CBD04FF0FF37EAE700BFC7
:10116C00202000004020000000200000324B70B511
:10117C001D6806460C4625B1AB6913B9284600F02C
:10118C007DF92E4B9C420FD16C68A389B4F90C20CD
:10119C0019072CD4DD0611D40923336042F0400327
:1011AC004FF0FF30A3813EE0254B9C4201D1AC684F
:1011BC00EBE7244B9C4208BFEC68E6E7580712D5D6
:1011CC00616B41B104F14403994202D0304600F006
:1011DC0059FA00236363A38923F02403A38100231A
:1011EC00636023692360A38943F00803A381236907
:1011FC004BB9A38903F42073B3F5007F03D02146C8
:10120C00304600F0FFF9A089B4F90C2010F001036E
:10121C000AD00023A36063695B42A361236943B9CD
:10122C0010F08000BAD170BD810758BF6369A3600C
:10123C00F4E70020F7E700BF1C000020202000008E
:10124C0040200000002000008A892DE9F04105466D
:10125C0010070C4658D44B68002B05DC0B6C002B8C
:10126C0002DC0020BDE8F081E66A002EF9D00023F4
:10127C0012F480522F682B6032D0606DA3895A070C
:10128C0005D56368C01A636B0BB1236CC01A0023BD
:10129C000246E66A2846216AB047431CA38906D158
:1012AC0029681D292CD82A4ACA40D60728D50022DD
:1012BC0062602269D904226004D5421C01D12B68DA
:1012CC0003B96065616B2F600029CAD004F1440337
:1012DC00994202D0284600F0D5F900206063C1E79E
:1012EC00216A01232846B047411CC7D12B68002B2B
:1012FC00C4D01D2B01D0162B01D12F60B1E7A389CF
:10130C0043F04003A381ADE70F69002FA9D09307E9
:10131C0018BF00230E6808BF4B69A6EB07080F60C7
:10132C008B60B8F1000F9CDD43463A462846216A93
:10133C00A66AB047002806DCA3894FF0FF3043F0C3
:10134C004003A3818EE70744A8EB0008E9E700BF40
:10135C000100402038B50B6905460C4613B9002531
:10136C00284638BD18B183690BB900F087F8144BC7
:10137C009C421BD16C68B4F90C30002BEFD0626E20
:10138C00D00704D4990502D4A06D00F015F92846B5
:10139C002146FFF759FF636E0546DA07E0D4A389AF
:1013AC009B05DDD4A06D00F008F9D9E7054B9C42F4
:1013BC0001D1AC68DFE7044B9C4208BFEC68DAE76C
:1013CC00202000004020000000200000002310B569
:1013DC000446C0E90033C0E904338360818143666D
:1013EC00C2818361194608225C30FFF7D7FD054B9B
:1013FC0024626362044BA362044BE362044B2363D9
:10140C0010BD00BFD91D0000FB1D0000331E0000E5
:10141C00571E0000014900F0AFB800BF6113000077
:10142C0070B568254A1E55430E4605F1740100F04F
:10143C0075F9044640B10021C0E900160C30A060DB
:10144C0005F16802FFF7AAFD204670BD014800F0C7
:10145C00B3B800BF04010020014800F0AEB800BFD3
:10146C0004010020014800F0A7B800BFFF000020D5
:10147C00014800F0A2B800BFFF00002010B50446E0
:10148C00FFF7F0FFA3691BB1BDE81040FFF7F0BFF9
:10149C00C4E912332365134B134A1B68A262A3429F
:1014AC0008BF0123204608BFA36100F01FF860604D
:1014BC00204600F01BF8A060204600F017F8002230
:1014CC000421E0606068FFF781FF01220921A06818
:1014DC00FFF77CFF02221221E068FFF777FF012360
:1014EC00A361D1E7FC1F000021140000F8B50746EA
:1014FC00FFF7ACFF1E4B1E68B36913B93046FFF7FC
:10150C00BDFF4836D6E90134013B03D533680BB334
:10151C003668F7E7B4F90C50D5B9164B04F15800FE
:10152C00E360656600F047F8FFF796FF082229464E
:10153C00C4E90155C4E904552560A56104F15C00BA
:10154C00FFF72CFDC4E90D55C4E912552046F8BD32
:10155C006834D9E704213846FFF762FF044630604F
:10156C000028D5D1FFF778FF0C233B60EEE700BFD6
:10157C00FC1F00000100FFFF2DE9F84306468846DA
:10158C00002700F14804D4E90195B9F1010905D50A
:10159C002468002CF7D13846BDE8F883AB89012BC1
:1015AC0007D9B5F90E30013303D029463046C04770
:1015BC0007436835E9E770477047704770B50E46CA
:1015CC00B1F90E10144600291D4696B007DA002317
:1015DC002B60B3891A0610D44FF480630EE06A4670
:1015EC0000F048FC0028F2DB019A02F47042A2F5EC
:1015FC0000535A425A412A60EEE7402300202360F0
:10160C0016B070BD8B8973B59D0706460C4607D581
:10161C0004F14703236023610123636102B070BDB1
:10162C006A4601ABFFF7CAFF00990546304600F049
:10163C0075F848B9B4F90C309A05EFD423F00303CC
:10164C0043F00203A381E3E70D4BB362A38920604F
:10165C0043F08003A381009B20616361019B5BB11C
:10166C003046B4F90E1000F017FC28B1A38923F012
:10167C00030343F00103A381A0890543A581CDE7B2
:10168C002114000038B50546002943D051F8043C1C
:10169C000C1F002BB8BFE41800F02EFC1E4A136878
:1016AC00104633B9636014602846BDE8384000F03A
:1016BC0029BCA3420AD921686218934201BF1A6857
:1016CC005B685218226063600460EDE71A465B6841
:1016DC000BB1A342FAD911685018A0420BD1206863
:1016EC000144501883421160DED118685B680144D4
:1016FC0011605360D8E702D90C232B60D4E7206823
:10170C0021188B4201BF19685B680918216063605E
:10171C005460C9E738BD00BFA4000020F8B5CD1C4B
:10172C0025F0030508350C2D38BF0C25002D064679
:10173C0001DBA94203D90C2333600020F8BD00F073
:10174C00DBFB21490A6814469CB9204F3B6823B93E
:10175C002146304600F02AFB38602946304600F01E
:10176C0025FB431C23D10C233046336000F0CAFB0D
:10177C00E3E723685B1B17D40B2B03D923601C44B2
:10178C00256004E06368A2420CBF0B6053603046D6
:10179C0000F0B8FB04F10B00231D20F00700C21A67
:1017AC00CCD01B1AA350C9E722466468CCE7C41CF2
:1017BC0024F00304A042E3D0211A304600F0F6FADC
:1017CC000130DDD1CFE700BFA4000020A80000202D
:1017DC00936810B4013B002B936007DA9469A34221
:1017EC0001DB0A2902D110BCFFF76EBC1368581C30
:1017FC0010601970084610BC7047F8B506460F46C5
:10180C001446D518AC4201D1002007E03A463046C8
:10181C0014F8011BFFF7DCFF431CF3D1F8BD0000EB
:10182C002DE9F04F0D461446984606469DB018B16A
:10183C0083690BB9FFF722FE894B9D421BD175685A
:10184C006B6ED90705D4AB899A0502D4A86DFFF746
:10185C00B3FEAB891B0701D52B69EBB92946304682
:10186C00FFF784FCC0B16B6EDC070ED54FF0FF3078
:10187C001DB0BDE8F08F7B4B9D4201D1B568DFE711
:10188C00794B9D4208BFF568DAE7AB899805EDD432
:10189C00A86DFFF792FEE9E70023099320238DF84A
:1018AC00293030234FF00109CDF80C80DFF8BC81D2
:1018BC008DF82A3023469A4613F8012B0AB1252AB3
:1018CC00F9D1BAEB040B0BD05B46224629463046C5
:1018DC00FFF793FF013000F0AA80099A5A4409924D
:1018EC009AF80030002B00F0A28000234FF0FF325A
:1018FC00CDE905230AF1010A049307938DF85330BF
:10190C001A935446052214F8011B584800F0E6FAC5
:10191C00049AD8B9D10644BF20238DF8533013074D
:10192C0044BF2B238DF853309AF800302A2B15D056
:10193C00544600204FF00A0C079A214611F8013B3F
:10194C00303B092B4ED9B0B1079214E0A0EB080341
:10195C0009FA03F31343A2460493D2E7039B191D20
:10196C001B680391002BBBBF5B4242F00202079342
:10197C000793B8BF049223782E2B0CD163782A2BB3
:10198C0035D1039B02341A1D1B680392002BB8BF80
:10199C004FF0FF330593DFF8E4A003225046217883
:1019AC0000F09CFA40B14023A0EB0A0003FA00F0CF
:1019BC00049B01340343049314F8011B06222C48A6
:1019CC008DF8281000F08AFA00283FD0294B1BBB59
:1019DC00039B073323F0070308330393099B3B4412
:1019EC00099367E70C4601200CFB0232A5E70023A4
:1019FC004FF00A0C194601340593204610F8012BC0
:101A0C00303A092A03D9002BC5D00591C3E7044607
:101A1C0001230CFB0121F0E703AB00932A4630466F
:101A2C00154B04A9AFF300800746781CD6D16B6E1A
:101A3C00D90705D4AB899A0502D4A86DFFF7BDFD73
:101A4C00AB895B063FF512AF099811E703AB009326
:101A5C002A463046084B04A900F082F8E4E700BFA0
:101A6C00202000004020000000200000602000002A
:101A7C006A2000000000000007180000662000002B
:101A8C002DE9F047164699468A680B69074693423A
:101A9C00B8BF1346336091F843200C46DDF8208024
:101AAC000AB1013333602368990642BF33680233AD
:101ABC003360256815F0060506D104F1190AE368B0
:101ACC0032689B1AAB4228DC94F84320131E226820
:101ADC0018BF012392062DD44946384604F143021F
:101AEC00C047013020D02368E56803F00603042BBF
:101AFC0018BF002532684FF00006A36808BFAD1A66
:101B0C00226908BF25EAE5759342C4BF9B1AED18FC
:101B1C001A34B5421AD1002008E001235246494636
:101B2C003846C047013003D14FF0FF30BDE8F08795
:101B3C000135C4E73020E11881F843005A1C94F8B1
:101B4C0045102244023382F84310C5E70123224694
:101B5C0049463846C0470130E6D00136D9E7000087
:101B6C002DE9FF470C46277E9146782F80469A46F2
:101B7C000C9904F1430207D8622F0AD8002F00F009
:101B8C00D980582F00F0A48004F1420684F84270EA
:101B9C003AE0A7F16303152BF6D801A050F823F017
:101BAC00051C0000191C0000951B0000951B000073
:101BBC00951B0000951B0000191C0000951B0000D4
:101BCC00951B0000951B0000951B0000271D0000B5
:101BDC00491C0000091D0000951B0000951B00000E
:101BEC00491D0000951B0000491C0000951B0000BE
:101BFC00951B0000111D00000B6804F142061A1D14
:101C0C001B680A6084F842300123A4E02568086848
:101C1C002E0600F104030AD505680B60002D03DACB
:101C2C002D236D4284F843300A235E4819E015F0E9
:101C3C00400F05680B6018BF2DB2EFE70B682568E5
:101C4C00181D0860280601D51D6802E06906FBD541
:101C5C001D886F2F0CBF08230A235248002184F8DB
:101C6C0043106668002EA8BF2168A660A4BF21F0AF
:101C7C00040121600DB9002E4DD01646B5FBF3F1D1
:101C8C0003FB1157C75D06F8017D2F46BB420D467D
:101C9C00F4D9082B0BD12368DF0708D523696168B9
:101CAC009942DEBF302306F8013C06F1FF36921B49
:101CBC0022614B4621464046CDF800A003AAFFF70F
:101CCC00DFFE01304CD14FF0FF3004B0BDE8F0879F
:101CDC00344884F845700E68236856F8045B1F0678
:101CEC000E6014D5D90744BF43F0200323601DB9FF
:101CFC00236823F0200323601023AFE7236843F00D
:101D0C00200323607823284884F84530E3E75E06F7
:101D1C0048BFADB2E6E71646BBE70B6826681D1D4B
:101D2C0060690D6035061B6801D5186002E071060C
:101D3C00FBD51880002316462361BAE70B681A1DE1
:101D4C000A601E6800213046626800F0C7F808B1CE
:101D5C00801B606063682361002384F84330A8E72C
:101D6C003246494640462369D0470130ABD0236800
:101D7C009B0713D4E068039B9842B8BF1846A4E7AE
:101D8C000123324649464046D04701309BD00135AD
:101D9C00E36803995B1AAB42F2DCEBE7002504F134
:101DAC001906F5E7712000008220000038B50023E9
:101DBC00054D044608462B60FEF7A0FE431C02D1DD
:101DCC002B6803B1236038BD0801002010B50C4608
:101DDC00B1F90E1000F09CF80028ABBF636DA3891D
:101DEC001B1823F48053ACBF6365A38110BD2DE990
:101DFC00F0411F468B890546DB050C46164605D57A
:101E0C0002230022B1F90E1000F056F8A3893246D5
:101E1C0023F48053A38128463B46B4F90E10BDE849
:101E2C00F041FEF747BE10B50C46B1F90E1000F0AC
:101E3C0043F8431CA38915BF606523F4805343F416
:101E4C008053A38118BFA38110BDB1F90E1000F00F
:101E5C0001B8000038B50023054D044608462B6038
:101E6C00FEF7E6FD431C02D12B6803B1236038BD9D
:101E7C000801002038B50023064D044608461146DB
:101E8C002B60FEF7E5FD431C02D12B6803B12360E8
:101E9C0038BD00BF0801002038B50023054D0446AD
:101EAC0008462B60FEF7E3FD431C02D12B6803B1FF
:101EBC00236038BD0801002038B504460846114699
:101ECC000022054D2A601A46FEF7DBFD431C02D1A9
:101EDC002B6803B1236038BD08010020034610B500
:101EEC00C9B202449342184601D1002003E00478A1
:101EFC0001338C42F6D110BD0148FFF75DBB00BF2A
:101F0C00000100200148FFF758BB00BF0001002072
:101F1C0038B50446084611460022054D2A601A467B
:101F2C00FEF7BBFD431C02D12B6803B1236038BD07
:101F3C00080100204865617020616E642073746133
:101F4C00636B20636F6C6C6973696F6E0A000000C1
:101F5C00010000000200000004000000010000006D
:101F6C00626C696E6B792074696D650D0000000000
:101F7C00676F7420612031202D207374617274207E
:101F8C00696E746572727570740D0000676F7420E1
:101F9C00612032202D2073746F7020696E7465720D
:101FAC00727570740D0000006B6579207265636545
:101FBC0069766564202D202563200D0A0000000041
:101FCC005746463933204D616A6F72204672616DF7
:101FDC006520496E74657272757074204F636375F9
:101FEC00727265640A0D0000205754463F0A0D00BA
:101FFC002000002000000000000000000000000095
:10200C0000000000000000000000000000000000C4
:10201C0000000000000000000000000000000000B4
:10202C0000000000000000000000000000000000A4
:10203C000000000000000000000000000000000094
:10204C000000000000000000000000000000000084
:10205C0000000000232D302B2000686C4C006566BE
:10206C0067454647003031323334353637383941DD
:10207C0042434445460030313233343536373839F3
:10208C006162636465660000F8B500BFF8BC08BC0B
:10209C009E467047F8B500BFF8BC08BC9E4670471A
:0820AC00910400006D04000026
:1020B40040787D0140787D01105E5F00105E5F0016
:1020C400105E5F00105E5F000000054020000020ED
:1020D400000000002020000040200000002000003C
:1020E40000000000000000000000000000000000EC
:1020F40000000000000000000000000000000000DC
:1021040000000000000000000000000000000000CB
:1021140000000000000000000000000000000000BB
:1021240000000000000000000000000000000000AB
:04000003000002995E
:00000001FF
