:0200000460009A
:1000000000000120910100007F0300008103000037
:100010008303000085030000870300000000000048
:100020000000000000000000000000008903000044
:100030008B030000000000008D0300008F03000010
:100040009103000093030000950300009703000054
:10005000990300009B0300009D0300009F03000024
:10006000A1030000A3030000F10A0000150B00002B
:10007000A9030000AB030000AD030000AF030000C4
:10008000B1030000B3030000B5030000B703000094
:10009000B9030000BB030000BD030000BF03000064
:1000A000C1030000C3030000C5030000C703000034
:1000B000C9030000CB030000CD030000CF03000004
:1000C000D1030000D3030000C5130000D7030000D4
:1000D000D9030000DB030000DD030000DF030000A4
:1000E000E1030000E3030000E5030000E703000074
:1000F000E9030000EB030000ED030000EF03000044
:10010000F1030000F3030000F5030000F703000013
:10011000F9030000FB030000FD030000FF030000E3
:1001200001040000030400000504000007040000AF
:10013000090400000B0400000D0400000F0400007F
:10014000110400001304000015040000170400004F
:10015000190400001B0400001D0400001F0400001F
:1001600021040000230400002504000027040000EF
:10017000290400002B0400002D0400002F040000BF
:100180003104000033040000000000000000000003
:100190004FF0000BDFF8BE020068DFF8B612096806
:1001A00001F0030100F01C00142801D14BF0020BF8
:1001B000002901D04BF0010BBBF1000F05D0A7487F
:1001C000A749DFF8722200F09FF8A64880470BF09D
:1001D000020ABAF1000F0CD0DFF86E02DFF86E12DF
:1001E00002680B680FB44FF000024FF0FF0302608B
:1001F0000B609D484FF000024FF00103022808D128
:10020000DFF83A120A60DFF83E120A60DFF83212B5
:100210000B60012808D1DFF82A120A60DFF82612E5
:100220000A60DFF81A120B609048002809D1904844
:100230009049914A00F030F890489149914A00F075
:100240002BF891489149924A00F026F8914892493A
:10025000DFF8E22100F058F8BBF1000F10D08F4812
:100260008F49DFF8D62100F04FF80BF0020ABAF1FF
:10027000000F05D00FBC02600B6000BFAFF3008021
:10028000DFF820020FF2030E00474FF000004FF09E
:100290000001DFF814F2FEE72DE9F841884225D08D
:1002A000B2EB010200D5FEE740EA010313F00303BD
:1002B00002D000F01DF819E04FF000039046121133
:1002C000F7D09A421CBFF0C8F0C103F10103F8D186
:1002D00008F00F08B8F1000F08D004780C7000F196
:1002E000010001F10101B8F10108F6D1BDE8F88182
:1002F00008B54FF0000303780B7000F1010001F125
:100300000101013AF7D108BD884237D000F0030659
:10031000002E14D04FF00405A5EB06044FF008079B
:1003200007FB06F8914669FA08F9002C07D080F817
:10033000009069FA07F900F10100013CF5E74FF080
:1003400000060F46091A88460911914614461546BB
:10035000B14206D018BFA0E8340206F10106B1424E
:10036000F8D108F00F08B8F1000F07D002704FEA7B
:10037000322200F10100B8F10108F4E77047FEE70E
:10038000FEE7FEE7FEE7FEE7FEE7FEE7FEE7FEE745
:10039000FEE7FEE7FEE7FEE7FEE7FEE7FEE7FEE735
:1003A000FEE7FEE7FEE7FEE7FEE7FEE7FEE7FEE725
:1003B000FEE7FEE7FEE7FEE7FEE7FEE7FEE7FEE715
:1003C000FEE7FEE7FEE7FEE7FEE7FEE7FEE7FEE705
:1003D000FEE7FEE7FEE7FEE7FEE7FEE7FEE7FEE7F5
:1003E000FEE7FEE7FEE7FEE7FEE7FEE7FEE7FEE7E5
:1003F000FEE7FEE7FEE7FEE7FEE7FEE7FEE7FEE7D5
:10040000FEE7FEE7FEE7FEE7FEE7FEE7FEE7FEE7C4
:10041000FEE7FEE7FEE7FEE7FEE7FEE7FEE7FEE7B4
:10042000FEE7FEE7FEE7FEE7FEE7FEE7FEE7FEE7A4
:10043000FEE7FEE7704700000000A2A2A2A2008033
:100440000340088003401080034030800340348024
:1004500003403880034018080240000000F00020EC
:1004600000000120AD0400000000000001000000B9
:100470000000006000000000900100000007006024
:1004800000070000C0150000C0150060000000203B
:100490002000002020000020D0000020D0000020FC
:1004A00000F00020ED1400002113000080B500AF23
:1004B00000F0FCF8044B5B69034A43F4007353619A
:1004C000FFF7B8FF00BF80BD00ED00E080B588B049
:1004D00000AF314BD3F8983003F08063FB61FB69C8
:1004E000002B4ED12C4BD3F8983003F480537B6112
:1004F0007B69002B15D1294B294A1A60294B284AC0
:100500001A60294B264A1A60284B294A1A60294B3F
:10051000294A1A60294B224A1A60294B204A1A603C
:1005200036E0284A3B1D92E8030083E803001A4B9B
:10053000D3F89C309B0903F007033B613A1D3B69EC
:1005400013441B78FB73FB7B022B12D0022B14DCB1
:10055000002B02D0012B07D00FE000F037F8B86174
:10056000B86900F051F813E04FF4004000F04CF887
:100570000EE0154800F048F80AE0134800F044F88F
:1005800006E000F023F8B861B86900F03DF8FFE735
:1005900000BF2037BD4680BD008003400000002022
:1005A00000E1F50504000020080000200C000020F8
:1005B00040787D011000002080F0FA021400002035
:1005C000180000203415000040420F0080B483B0B2
:1005D00000AF0A4BD3F8503103F004033B603B6893
:1005E000002B02D1064B7B6001E0064B7B607B68F1
:1005F00018460C37BD4680BC704700BF00800340E2
:1006000040787D0180F0FA0280B483B000AF78605A
:100610000C4A7B6813600C4A7B6813600B4A7B684A
:1006200013600B4B0B4A1A600B4A7B6813600B4A32
:100630007B6813600A4A7B68136000BF0C37BD46B5
:1006400080BC70470000002004000020080000204B
:100650000C00002040787D011000002014000020D4
:100660001800002080B483B000AF0E4BD3F84C319B
:100670003B603B684FF60202934204D03B680A4A53
:10068000934203D005E001237B6005E002237B60F9
:1006900002E000237B6000BF7B6818460C37BD4634
:1006A00080BC70470080034002F8010080B582B032
:1006B00000AFFFF7D7FF78607B68012B02D100F015
:1006C00007F800E000BF00BF0837BD4680BD00004E
:1006D00080B400AF094BD3F89830084A43F48073D4
:1006E000C2F89830054BD3F89830044A23F0806361
:1006F000C2F8983000BFBD4680BC70470080034000
:1007000010B5054C237833B9044B13B10448AFF34B
:1007100000800123237010BD200000200000000095
:100720009415000008B5034B1BB103490348AFF310
:10073000008008BD00000000240000209415000087
:1007400080B483B000AF0346FB71FB7903F01F0355
:10075000012202FA03F1054A97F907305B0942F8D2
:10076000231000BF0C37BD4680BC704700E100E09D
:1007700080B483B000AF0346FB71FB7903F01F0325
:10078000012202FA03F1064A97F907305B09203388
:1007900042F8231000BF0C37BD4680BC704700BF35
:1007A00000E100E080B483B000AF0346FB71FB7949
:1007B00003F01F03012202FA03F1064A97F90730FA
:1007C0005B09603342F8231000BF0C37BD4680BC84
:1007D000704700BF00E100E080B483B000AF7860F4
:1007E0000B46FB707B6803F070427B685B0123F073
:1007F0007E4323F01F031343FA789200134403F15E
:1008000000731A460123136000BF0C37BD4680BC3D
:10081000704780B483B000AF78600B46FB707B6894
:1008200003F070427B685B0123F07E4323F01F03DB
:100830001343FA789200134403F100731A4600231D
:10084000136000BF0C37BD4680BC704780B483B0D6
:1008500000AF78600B46FB707B6803F070427B68EA
:100860005B0123F07E4323F01F031343FA789200C9
:10087000134403F100731B68DBB218460C37BD4606
:1008800080BC704780B584B000AFF860B960134693
:10089000FB71FB68144A934204D0FB68134A9342ED
:1008A00000D000BEFB791A46B968F86800F088FAF3
:1008B000FB681B68303303211846FFF7AAFFFB686B
:1008C0001B68343302211846FFF7A3FFFB681B683F
:1008D000383300211846FFF79CFFFB68044A5A6230
:1008E00000BF1037BD4680BD8400002044000020BA
:1008F000A111000080B487B000AFF860B9607A60E1
:1009000000237B610023FB74FB68274A934204D0D9
:10091000FB68264A934200D000BEBB68002B00D182
:1009200000BE7B68002B00D100BEFB681E4A9342CC
:1009300003D0FB681D4A934230D1BB68002B2DD0F9
:100940007B68002B2AD0FB681B681B7DFB74FB684F
:100950005A7BFB7C1343DAB2FB685A7315E0FB68E1
:100960001A68B9687B690B441278D2B21A707B6935
:1009700001337B61FB681B681B7DFB74FB685A7B42
:10098000FB7C1343DAB2FB685A73FB7C03F0010370
:10099000002B03D07A697B689A42E0D37B691846C2
:1009A0001C37BD4680BC70478400002044000020F6
:1009B00080B582B000AF78600B467B807B68234AAD
:1009C000934204D07B68224A934200D000BE7B88C9
:1009D0004FF6FF72934200D100BE7B681B4A9342E0
:1009E00003D07B681A4A93422CD17B884FF6FF7262
:1009F000934227D07B6893F904301846FFF7D2FE64
:100A00007B681B681B79D9B27B88DBB203F00F03CC
:100A1000DAB27B681B680A43D2B21A717B681B6822
:100A200093F82430D9B27B881B09DAB27B681B6843
:100A30000A43D2B283F824207B6893F90430184625
:100A4000FFF77EFE00BF0837BD4680BD8400002052
:100A50004400002080B582B000AF78600B467B80F8
:100A60007B68214A934204D07B68204A934200D09D
:100A700000BE7B681C4A934203D07B681B4A9342AA
:100A80002ED17B681B681B79D9B27B88DBB203F05F
:100A90000F03DBB2DB43DAB27B681B680A40D2B2D9
:100AA0001A717B681B6893F82430D9B27B881B0AC3
:100AB000DBB2DB43DAB27B681B680A43D2B283F84D
:100AC00024207B6893F904301846FFF76BFE7B887F
:100AD0000F2B05D17B6893F904301846FFF748FEC9
:100AE00000BF0837BD4680BD8400002044000020C0
:100AF000684620F007018D4689B500AF044800F034
:100B00004BFA00BFBD46BDE889408546704700BF2F
:100B100084000020684620F007018D4689B500AFAB
:100B2000044800F039FA00BFBD46BDE8894085465B
:100B3000704700BF4400002080B582B000AF7860ED
:100B400039607B681B4A934204D07B681A4A9342FF
:100B500000D000BE3B68002B00D100BE7B68154A68
:100B6000934203D07B68144A93421ED13B68002B0A
:100B70001BD07B683A685A627B6800221A617B68E6
:100B800000225A617B6893F904301846FFF70AFE89
:100B90007B681B68043301211846FFF71DFE7B6844
:100BA00093F904301846FFF7CBFD00BF0837BD4668
:100BB00080BD00BF840000204400002080B489B0C4
:100BC00000AFF860B9607A600023FB750023FB6119
:100BD000FB68264A934204D0FB68254A934200D022
:100BE00000BEBB68002B00D100BE7B68002B00D18B
:100BF00000BEFB681D4A934203D0FB681C4A934227
:100C00002DD1BB68002B2AD07B68002B27D0FB6836
:100C10001B681B7DFB75FB685A7BFB7D1343DAB2B7
:100C2000FB685A73FB7D03F02003002B17D01023C1
:100C3000BB617B680F2B01D87B68BB610023FB6124
:100C400009E0BA68FB691A44FB681B6812781A70DD
:100C5000FB690133FB61FA69BB699A42F1D3FB6915
:100C600018462437BD4680BC704700BF8400002072
:100C70004400002080B588B000AF786039607B68A0
:100C80004B4A934204D07B684A4A934200D000BE4C
:100C90007B68474A934204D07B68464A934240F0BF
:100CA00082807B683A689A60FFF710FC7B68404A54
:100CB000934203D1404B1B68FB6102E03F4B1B6832
:100CC000FB61FB69DA003B68B2FBF3F3BB61BB6914
:100CD0005B087B617B699B093B613B699B017A698E
:100CE000D31AFB603B69DB01BA69D21AFB685B006F
:100CF000D31AFA681344FB603B69B3F5803F00D315
:100D000000BE3B69B3F5803F4DD23B69012B2AD928
:100D10007B681B680C3307211846FFF75DFD3B69B4
:100D20001A0A7B681B68D2B21A717B681B683A6921
:100D3000D2B21A707B681B680C3307211846FFF784
:100D400068FD7B681B68303307211846FFF744FDB8
:100D5000FB68FF2B00D900BE7B681B68FA68D2B223
:100D600083F83C201FE07B681B680C330721184682
:100D7000FFF732FD3B691A0A7B681B68D2B21A7111
:100D80007B681B683A69D2B21A707B681B680C33A7
:100D900007211846FFF73DFD7B681B6830330721AC
:100DA0001846FFF736FD00BF2037BD4680BD00BFA7
:100DB00084000020440000200400002008000020DF
:100DC00080B584B000AFF860B9601346FB71FB6872
:100DD0006D4A934204D0FB686C4A934200D000BE37
:100DE000FB68694A934216D1FB684FF080421A6053
:100DF000FB680A221A71664B9B6C654A43F08003BC
:100E000093640A20FFF7CEFC614B9B6C604A23F091
:100E10008003936414E0FB685E4A1A60FB680B224F
:100E20001A715B4B9B6C5A4A43F4807393640B209A
:100E3000FFF7B8FC564B9B6C554A23F480739364C0
:100E4000FB681B6800221A71FB681B6800221A727B
:100E5000FB681B68083301211846FFF7BDFCFB68DF
:100E60001B68083302211846FFF7B6FCFB681B68B5
:100E7000083300211846FFF7AFFCFB681B681033EE
:100E800004211846FFF7C5FCFB681B6810330521D9
:100E90001846FFF7BEFCFB681B6834330121184677
:100EA000FFF7B7FCFB681B68343300211846FFF7D7
:100EB000B0FCFB681B68383301211846FFF7A9FC1A
:100EC000FB681B68303305211846FFF7A2FCFB685E
:100ED0001B68303306211846FFF79BFCFB681B6834
:100EE000303307211846FFF794FCFB681B68383342
:100EF00003211846FFF78DFCFB681B68002283F86E
:100F00004420FB681B68002283F84820FB681B68AC
:100F1000002283F84C20B968F868FFF7ABFEFB6845
:100F20001B68FA791A73FB68BA689A60FB68FA79E9
:100F30001A73FB6800225A61FB6800221A61FB6881
:100F400000229A61FB6800221A62FB6800225A6242
:100F5000FB680022DA61FB6800229A62FB680022CB
:100F6000DA62FB6800221A63FB6800225A63FB689E
:100F700000229A63FB680022DA63FB6800225A733E
:100F800000BF1037BD4680BD840000204400002013
:100F9000008003400000014080B584B000AF78605D
:100FA0007B687D4A934204D07B687C4A934200D0A0
:100FB00000BE7B68784A934204D07B68774A9342AC
:100FC00040F0DA807B681B681B7ADBB203F00F030A
:100FD000FB73FB7B0C2B00F2CD8001A252F823F0B7
:100FE0001510000075110000331000008D10000076
:100FF00051100000751100006F1000007511000005
:1010000075110000751100007511000075110000C8
:10101000511000007B689B6A002B00D100BE7B68EA
:101020009B6A002B00F0AA807B689B6A78689847CF
:10103000A4E07B685B6A002B00D100BE7B685B6A22
:10104000002B00F09D807B685B6A7868984797E08A
:101050007B681B6A002B00D100BE7B681B6A002BDB
:1010600000F090807B681B6A786898478AE07B680C
:10107000DB69002B00D100BE7B68DB69002B00F030
:1010800083807B68DB69786898477DE07B681B68B4
:10109000283300211846FFF7D9FB0346002B0CD05C
:1010A0007B68DB6A002B00D100BE7B68DB6A002B0B
:1010B00003D07B68DB6A786898477B681B682833B5
:1010C00001211846FFF7C2FB0346002B0CD07B68BA
:1010D0001B6B002B00D100BE7B681B6B002B03D069
:1010E0007B681B6B786898477B681B6828330221F4
:1010F0001846FFF7ABFB0346002B0CD07B685B6BFD
:10110000002B00D100BE7B685B6B002B03D07B689B
:101110005B6B786898477B681B6828330321184607
:10112000FFF794FB0346002B0CD07B689B6B002BD6
:1011300000D100BE7B689B6B002B03D07B689B6B50
:10114000786898477B681B68283304211846FFF7A6
:101150007DFB0346002B19D07B68DB6B002B00D195
:1011600000BE7B68DB6B002B10D07B68DB6B786884
:1011700098470BE000BE0AE000BF08E000BF06E0B1
:1011800000BF04E000BF02E000BF00E000BF00BFFE
:101190001037BD4680BD00BF840000204400002001
:1011A00080B586B000AF78607B68354A934204D042
:1011B0007B68344A934200D000BE7B681B69002BD9
:1011C00000D100BE7B685B69002B00D100BE7B684C
:1011D0002B4A934203D07B682A4A93424CD17B68C6
:1011E0001B69002B48D07B685B69002B44D07B686F
:1011F0001B681B7DFB737B685A7BFB7B1343DAB256
:101200007B685A73FB7B03F02003002B24D0102350
:101210003B617B685A697B689B69D31ABB60BB687A
:101220000F2B01D8BB683B6100237B6110E07B681A
:101230001A697B689B691A447B681B6812781A706C
:101240007B689B695A1C7B689A617B6901337B616F
:101250007A693B699A42EAD37B689A697B685B69E1
:101260009A4209D17B6800225A617B681B6804336B
:1012700001211846FFF7CDFA00BF1837BD4680BDE3
:10128000840000204400002080B483B000AF0346F7
:10129000FB71FB7903F01F03012202FA03F1054AF7
:1012A00097F907305B0942F8231000BF0C37BD46A1
:1012B00080BC704700E100E080B483B000AF03461B
:1012C000FB71FB7903F01F03012202FA03F1064AC6
:1012D00097F907305B09203342F8231000BF0C3721
:1012E000BD4680BC704700BF00E100E080B483B021
:1012F00000AF0346FB71FB7903F01F03012202FAE2
:1013000003F1064A97F907305B09603342F823106E
:1013100000BF0C37BD4680BC704700BF00E100E055
:1013200080B582B000AF0023FB711F4B03224FF446
:1013300061411846FFF7A6FA1B4B1C491846FFF7F8
:10134000FBFB1B4800F056F81A4B1B68FF221A6083
:10135000BB1D012219461448FFF7CCFA0346FB7166
:10136000FB79002BF4D00023FB71BB79312B09D121
:10137000114800F03FF82220FFF7B8FF2220FFF7C6
:1013800083FFE5E7BB79322B09D10C4800F032F836
:101390002220FFF791FF2220FFF7A8FFD8E7084897
:1013A00000F028F8D4E700BF840000207914000082
:1013B0003C1500001C0000204C15000064150000C6
:1013C0007C15000080B500AF094B1B6803F5801346
:1013D0000C3300221A60064B1B681A68044B1B680A
:1013E00082F0FF021A602220FFF780FF00BF80BD5D
:1013F0001C00002080B584B000AF786000BF1B4B9C
:101400001B68002BFBD10023FB6002E0FB6801336B
:10141000FB607A68FB6813441B78002BF6D1144AF2
:101420007B681360114AFB681360124BFA68796895
:101430001846FFF7C3FBB8600C4B1A68BB68D31A99
:101440000A4A13600A4B1A68BB681344084A1360BF
:10145000064B1B68002B04D0064B02211846FFF7F1
:10146000A7FA00BF1037BD4680BD00BF4000002076
:101470003C0000208400002080B584B000AF78607C
:10148000184B1B68002B22D0174B1B68154A12689B
:1014900019467868FFF792FBF860124B1B68FA68F0
:1014A0009A4207D10F4B00221A6002217868FFF799
:1014B000D1FA13E00C4B1A68FB6813440A4A136014
:1014C000084B1A68FB68D31A064A136006E0054BFE
:1014D00000221A6002217868FFF7BCFA00BF1037BB
:1014E000BD4680BD400000203C00002070B50026B5
:1014F0000C4D0D4C641BA410A64209D100F04AF813
:1015000000260A4D0A4C641BA410A64205D170BDEA
:1015100055F8043B98470136EEE755F8043B9847E9
:101520000136F2E7AC150000AC150000AC15000068
:10153000B01500000001000102020303626C696E35
:101540006B792074696D650D0A000000676F742067
:10155000612031202D207374617274207070730DBE
:101560000A000000676F7420612032202D20737400
:101570006F70207070730D0A000000006B65792099
:101580007265636569766564202D20777466200D29
:101590000A000000F8B500BFF8BC08BC9E467047C2
:1015A000F8B500BFF8BC08BC9E4670472507000090
:1015B0000107000000000000000000000000000023
:1015C00000E1F50500E1F50500E1F50540787D0154
:1015D00080F0FA0200E1F50500E1F50500000030B9
:040000030000019167
:00000001FF
